:020000040800F2
:1000000000200020E9040008450500084505000817
:1000100045050008450500084505000800000000EA
:10002000000000000000000000000000450500087E
:10003000450500080000000045050008B517000848
:100040004505000845050008450500084505000868
:100050004505000845050008450500084505000858
:100060004505000845050008450500084505000848
:100070004505000845050008450500084505000838
:100080004505000845050008450500084505000828
:10009000450500084505000845050008691B0008DE
:1000A0004505000845050008450500084505000808
:1000B00045050008450500084505000845050008F8
:1000C00045050008450500084505000845050008E8
:1000D00045050008450500084505000845050008D8
:1000E000450500084505000845050008000000001A
:1000F0000000000000000000000000000000000000
:1001000000000000000000005FF808F180B590B02A
:1001100000AFF860B9601346FB800120012100F0B8
:10012000E1FE0820012100F0FBFE0120012100F08A
:10013000F7FE4FF48020012100F010FF00F0AAF834
:100140004FF4706001F084FA2B4AFB6813602A4B6D
:100150000C225A81284B00229A81274B00221A81B7
:10016000254B0022DA80244B00229A802348224922
:1001700000F0F0FF224801F055F9224B3B61BB68CB
:100180007B610023BB61FB88FB6100233B62802312
:100190007B620023BB620023FB6220233B634FF49E
:1001A00040537B630023BB6307F1100314481946D7
:1001B00001F0F4F90D2387F83C30012387F83F3034
:1001C000002387F83D30002387F83E3007F13C03D9
:1001D000184601F019FD0A48012101F01DFA0748EF
:1001E000012101F071F805484021012201F08CF84D
:1001F0004037BD4680BD00BFDC09002000480040FC
:10020000300002400448004080B58EB000AF7860F6
:100210000B467B804FF4706001F01AFA1B4801F026
:1002200001F91B4BBB607B68FB6000233B617B8853
:100230007B610023BB618023FB6100233B620023C1
:100240007B622023BB624FF44053FB6200233B637D
:1002500007F108030D48194601F0A0F90D2387F8AE
:100260003430012387F83730002387F835300023F6
:1002700087F8363007F13403184601F0C5FC03480F
:10028000012101F0C9F93837BD4680BD3000024078
:100290000448004080B500AF0C4B03229A700B4B12
:1002A0000422DA70094B4FF400621A8008480749AB
:1002B00000F04CF9054B1822DA70044B4FF48062C1
:1002C0001A800348014900F041F980BDD809002097
:1002D000000C014080B500AF154A154B1B6843F078
:1002E000010313601249124B5A68124B13404B60C2
:1002F0000F4A0F4B1B6823F0847323F48033136081
:100300000B4A0B4B1B6823F480231360084A084BED
:100310005B6823F4FE035360054B4FF41F029A60A1
:1003200000F00CF8044B4FF000629A6080BD00BFF3
:10033000001002400000FFF800ED00E080B500AFC3
:1003400000F002F880BD00BF80B483B000AF00238E
:100350007B6000233B603A4A394B1B6843F480338F
:100360001360374B1B6803F400333B607B68013339
:100370007B603B68002B03D17B68B3F5A06FF0D1A5
:100380002F4B1B6803F40033002B02D001233B608A
:1003900001E000233B603B68012B4BD1294A294BEC
:1003A0001B6843F010031360264A264B1B6823F09A
:1003B00003031360234A234B1B6843F002031360BB
:1003C0001F4A1F4B5B6853601D4A1D4B5B6853609F
:1003D0001B4A1B4B5B6843F480635360184A184BFD
:1003E0005B6823F47C135360154A154B5B6843F438
:1003F000E8135360124A124B1B6843F0807313607A
:1004000000BF0F4B1B6803F00073002BF9D00C4AA0
:100410000B4B5B6823F003035360094A084B5B688E
:1004200043F00203536000BF054B5B6803F00C030D
:10043000082BF9D10C37BD465DF8047B704700BF2F
:10044000001002400020024080B582B000AF78600A
:1004500000F01CF800F006F8786800F023F8083780
:10046000BD4680BD80B582B000AF1C23FB71C023A8
:10047000BB800323BB713B1D0348194600F066F89F
:100480000837BD4680BD00BF000C014080B500AFFD
:100490004FF40010012100F061FD0120012100F066
:1004A0003FFD80BD80B586B000AF78600023BB8182
:1004B0004BF6FF73FB8100233B824FF480637B820A
:1004C0004FF48043BB827B68BB600648012101F08A
:1004D000BFFC07F108030348194601F0F7FB183782
:1004E000BD4680BD0054004080B582B000AF104BC7
:1004F0007B60104B3B6007E03B681A1D3A607A68EE
:10050000111D796012681A603B680B4A9342F3D35D
:100510000A480B494FF000028842B8BF40F8042B4C
:10052000FADBFFF7D7FE00F057F90837BD4680BD6C
:100530002C870008000000204C0900204C090020F6
:10054000FC1B002080B400AFFEE700BF80B489B080
:1005500000AF786039600023FB6100233B6100231A
:10056000BB610023FB6000237B610023BB603B6811
:10057000DB7803F00F03FB613B68DB7803F01003CB
:10058000002B05D03B689B781A46FB691343FB613F
:100590003B681B88DBB2002B44D07B681B687B6107
:1005A0000023BB6138E0BB69012202FA03F3FB6060
:1005B0003B681B881A46FB6813403B613A69FB683D
:1005C0009A4226D1BB699B00FB60FB680F2202FAAE
:1005D00003F3BB60BB68DB437A6913407B61FB6854
:1005E000FA6902FA03F37A6913437B613B68DB78AB
:1005F000282B05D1BB6901229A407B685A6108E02B
:100600003B68DB78482B04D1BB6901229A407B68A8
:100610001A61BB690133BB61BB69072BC3D97B6816
:100620007A691A603B681B88FF2B4AD97B685B6834
:100630007B610023BB613EE0BB6908331A4601239E
:100640009340FB603B681B881A46FB6813403B6184
:100650003A69FB689A422BD1BB699B00FB60FB683F
:100660000F2202FA03F3BB60BB68DB437A691340D5
:100670007B61FB68FA6902FA03F37A6913437B61D1
:100680003B68DB78282B07D1BB6908331A46012366
:1006900003FA02F27B685A613B68DB78482B07D18A
:1006A000BB6908331A46012303FA02F27B681A6118
:1006B000BB690133BB61BB69072BBDD97B687A6914
:1006C0005A602437BD465DF8047B704780B485B01E
:1006D00000AF78600B467B800023FB737B689A68D1
:1006E0007B881340002B02D00123FB7301E0002321
:1006F000FB73FB7B18461437BD465DF8047B7047DF
:1007000090B484B000AF03460A46FB711346BB7138
:100710000023FB60BB7903F003039B000F2202FA66
:1007200003F3FB601649BB799B08DBB21846144AF9
:10073000BB799B08DBB2023352F82320FB68DB4312
:100740001A40831C41F823200D48BB799B08DBB27B
:100750001C460B4ABB799B08DBB2023352F82320BC
:10076000F979BB7903F003039B0001FA03F31A4301
:10077000A31C40F823201037BD4690BC704700BF33
:100780000000014080B500AF022000F02FFE0120E4
:1007900000F02CFA002000F0FBF900204FF460116B
:1007A00000F034FA012000F04FFA00BF392000F0C9
:1007B000F3FB0346002BF9D0022000F055FA00208D
:1007C00000F06EFA002000F087FA002000F0A0FA96
:1007D000002000F0B9FA80BDB0B58AB000AFFFF7D5
:1007E00079FDFFF7CFFF4FF47A70402100F096FFBC
:1007F0004E484F494FF47A72FFF788FC4D48FFF797
:1008000023FE01F07DFB01F08FFB4B4B00221A60B1
:1008100004E0494B1B680133474A1360464B1B6891
:10082000464A9342F5D901F08BFB00F0B7FF03462F
:10083000FB8400BF01F0BAFD0346002B08D100F095
:10084000ADFF0246FB8CD31A42F20F729342F1D9EC
:10085000062001F0AFFC0120502100F059F90C20D6
:1008600001F0A8FC002387F8253001F00FF801F013
:10087000DFFD00F093FF0246314B1B68D31AB3F53E
:10088000FA7F20D300F08AFF02462D4B1A602D4CD0
:100890003B4618462C492D4A01F034FE25463C467D
:1008A0000FCC0FC594E8070085E80700254B1B7E99
:1008B000012B08D1234B1A78254B1B68104619468B
:1008C000244A00F08BF800F069FF0246224B1B68B7
:1008D000D31A44F61F62934207D900F05FFF024625
:1008E0001D4B1A60184800F0DDFF00F057FF02466C
:1008F0001A4B1B68D31A44F61F62934214D900F0B6
:100900004DFF0246154B1A6001F050FD034687F873
:10091000253097F82530002B06D00120502100F01B
:10092000F7F80C2001F046FCA1E700BF80841E0010
:10093000480D0020801A060050090020A7E9130086
:1009400054090020280D0020F80900203011002053
:1009500040000020080A00205C09002058090020FF
:100960002DE9F0438FB00AAFF860B9607A603B6060
:100970007B685B8899467B689B8898467B68DB88A8
:100980001E463B685B68184602F0AEF804460D460A
:100990003B689B68184602F0A7F802460B46CDF864
:1009A0000090CDF804800296CDE90445CDE90623F8
:1009B000FB680893BB68099305484FF44871054AE2
:1009C000054B02F0CDFD1437BD46BDE8F08300BFF6
:1009D000080A002008810008D081000890B587B07F
:1009E00002AF0346B9607A60FB733E484FF49671DC
:1009F00001F0B2FAB86802F0E9FE03469AB23A4B47
:100A00001A80786802F0E2FE03469AB2374B1A80E9
:100A1000364B1B88364837491A4602F0EDFD3448FC
:100A200002F0D4FE0346DAB2334B1A70334B5B68E4
:100A3000184602F0CBFE03469AB22F4B1B789BB2AE
:100A400013449AB2284B1B8813449AB2274B1B8835
:100A500013449BB205339AB2294B1A80284B1A884B
:100A6000284B1A80FA7B264B1B881E48264902F029
:100A7000C3FD1C4802F0AAFE03469AB2214B1B8814
:100A800013449AB21F4B1A80164801F059FB1548BF
:100A900002F09CFE03469BB21248194601F05CFA34
:100AA000164B5C68114B1B88013300937B680193E4
:100AB0000C481649BA68234602F09EFD094801F029
:100AC0003FFB104B1B88184601F0C6FA054802F0A0
:100AD0007DFE03469BB20348194601F03DFA1437E8
:100AE000BD4690BD64120020640900206609002004
:100AF0004C110020408200086809002028000020D6
:100B00006A0900206C09002044820008588200080D
:100B100080B582B000AF03460A46FB711346BB8026
:100B2000194B00221A6004E0174B1B680133164A68
:100B30001360154B1B68154A9342F5D9124B0022DE
:100B40001A6004E0104B1B6801330F4A13600E4B10
:100B50001B680E4A9342F5D90B4B00221A6004E041
:100B6000094B1B680133084A1360074B1B68074A8F
:100B70009342F5D9092001F01DFB0B2001F01AFB6F
:100B80000837BD4680BD00BF600900201B1F010063
:100B900080B483B000AF7860134A134B1B6823F412
:100BA00080331360104A104B1B6823F480231360BA
:100BB0007B68B3F5803F03D0B3F5802F07D00DE0FD
:100BC000094A094B1B6843F48033136006E0064A68
:100BD000054B1B6843F4A023136000BF0C37BD46D0
:100BE0005DF8047B704700BF0010024080B483B002
:100BF00000AF0346FB71044AFB7913600C37BD4616
:100C00005DF8047B704700BF0000424280B485B0AD
:100C100000AF786039600023FB600A4B5B68FB60C3
:100C2000FB6823F47C13FB607A683B681343FA6823
:100C30001343FB60034AFB6853601437BD465DF8FD
:100C4000047B70470010024080B483B000AF0346BD
:100C5000FB71044AFB7913600C37BD465DF8047BD9
:100C6000704700BF6000424280B485B000AF78603A
:100C70000023FB60094B5B68FB60FB6823F0030308
:100C8000FB60FA687B681343FB60044AFB685360AF
:100C90001437BD465DF8047B704700BF001002406A
:100CA00080B485B000AF78600023FB60094B5B68BF
:100CB000FB60FB6823F0F003FB60FA687B6813437A
:100CC000FB60044AFB6853601437BD465DF8047B43
:100CD000704700BF0010024080B485B000AF78605C
:100CE0000023FB60094B5B68FB60FB6823F4E06357
:100CF000FB60FA687B681343FB60044AFB6853603F
:100D00001437BD465DF8047B704700BF00100240F9
:100D100080B485B000AF78600023FB60094B5B684E
:100D2000FB60FB6823F46053FB607B68DB00FA68C0
:100D30001343FB60034AFB6853601437BD465DF8FC
:100D4000047B70470010024080B485B000AF78602B
:100D50000023FB60094B5B68FB60FB6823F44043A6
:100D6000FB60FA687B681343FB60044AFB685360CE
:100D70001437BD465DF8047B704700BF0010024089
:100D800080B487B000AF786000237B6100233B61B3
:100D90000023FB600023BB604D4B5B6803F00C033A
:100DA0007B617B69042B07D0082B09D0002B34D141
:100DB0007B68484A1A6034E07B68464A1A6030E033
:100DC000434B5B6803F470133B61414B5B6803F476
:100DD0008033FB603B699B0C02333B61FB68002B5B
:100DE00006D13B693C4A02FB03F27B681A6013E0C0
:100DF000374B5B6803F40033002B06D03B69364A5F
:100E000002FB03F27B681A6006E03B69314A02FB91
:100E100003F27B681A6004E003E07B682D4A1A60E5
:100E200000BF2B4B5B6803F0F0037B617B691B0900
:100E30007B612A4A7B6913441B78DBB2BB607B6809
:100E40001A68BB68DA407B685A60214B5B6803F420
:100E5000E0637B617B691B0A7B61204A7B691344E9
:100E60001B78DBB2BB607B685A68BB68DA407B6882
:100E70009A60174B5B6803F460537B617B69DB0A04
:100E80007B61164A7B6913441B78DBB2BB607B68CD
:100E90005A68BB68DA407B68DA600D4B5B6803F424
:100EA00040437B617B699B0B7B610D4A7B691344EB
:100EB0001B78DBB2BB607B68DA68BB68B2FBF3F21D
:100EC0007B681A611C37BD465DF8047B704700BF24
:100ED0000010024000127A0000093D00440000208A
:100EE0005400002080B483B000AF78600B46FB70E4
:100EF000FB78002B06D00949084B5A697B681343DD
:100F00004B6106E00549054B5A697B68DB4313409A
:100F10004B610C37BD465DF8047B70470010024002
:100F200080B483B000AF78600B46FB70FB78002B79
:100F300006D00949084B9A697B6813438B6106E028
:100F40000549054B9A697B68DB4313408B610C377D
:100F5000BD465DF8047B70470010024080B483B04A
:100F600000AF78600B46FB70FB78002B06D0094978
:100F7000084BDA697B681343CB6106E00549054BF2
:100F8000DA697B68DB431340CB610C37BD465DF803
:100F9000047B70470010024080B487B000AF034666
:100FA000FB710023FB6000237B610023FB74FB7952
:100FB0005B09DBB2FB60FB68012B03D1124B1B68A2
:100FC0007B6109E0FB68022B03D10F4B1B6A7B613D
:100FD00002E00D4B5B6A7B61FB7903F01F03FB6052
:100FE000FB687A6922FA03F303F00103002B02D0B5
:100FF0000123FB7401E00023FB74FB7C18461C37C3
:10100000BD465DF8047B70470010024080B485B097
:1010100000AF78600023FB60344BFB607B689B79FA
:10102000002B4FD03149314B1A687B681B68DB437A
:1010300013400B602D492D4B5A687B681B68DB43BE
:1010400013404B607B681B791A46FB681344FB60B6
:10105000FB68FA6811687A6812680A431A602349C3
:10106000224B9A687B681B68DB4313408B601F49E7
:101070001E4BDA687B681B68DB431340CB607B68E0
:101080005B79102B0ED11949184B9A687B681B6845
:1010900013438B601549154BDA687B681B68134353
:1010A000CB601DE0114BFB607B685B791A46FB68E7
:1010B0001344FB60FB68FA6811687A6812680A4397
:1010C0001A600DE07B681B791A46FB681344FB60CD
:1010D000FB68FA6811687A681268D2430A401A609D
:1010E0001437BD465DF8047B704700BF0004014023
:1010F00080B485B000AF78600023FB730023BB6031
:101100000C4B1A687B681340BB600A4B5A697B68BA
:101110001340002B05D0BB68002B02D00123FB73CA
:1011200001E00023FB73FB7B18461437BD465DF8D6
:10113000047B70470004014080B483B000AF786046
:10114000034A7B6853610C37BD465DF8047B7047EA
:101150000004014080B58CB000AF78603960002396
:10116000FB620023BB6200237B6200233B620023FF
:10117000FB617B68FB617B681B8A9BB2FB62FA6A3E
:101180004CF6FF731340FB623B68DB881A46FB6A30
:101190001343FB62FB6A9AB27B681A827B689B8965
:1011A0009BB2FB62FA6A4EF6F3131340FB623B6894
:1011B0009A883B681B8913439AB23B685B89134347
:1011C0009BB21A46FB6A1343FB62FB6A9AB27B68C6
:1011D0009A817B689B8A9BB2FB62FA6A4FF6FF4357
:1011E0001340FB623B689B891A46FB6A1343FB6210
:1011F000FB6A9AB27B689A8207F108031846FFF7E8
:10120000BFFDFB692E4A934202D17B69BB6201E0BC
:101210003B69BB627B689B899BB29BB21BB2002B74
:101220000CDABA6A13469B0013449A001A443B68CE
:101230001B685B00B2FBF3F37B620BE0BA6A1346F8
:101240009B0013449A001A443B681B689B00B2FB46
:10125000F3F37B627B6A1B4AA2FB03235B091B013E
:10126000FB62FB6A1B09642202FB03F37A6AD31A4E
:101270003B627B689B899BB29BB21BB2002B0CDA52
:101280003B6ADB0032330F4AA2FB03235B0903F006
:101290000703FA6A1343FB620BE03B6A1B0132331C
:1012A000084AA2FB03235B0903F00F03FA6A134306
:1012B000FB62FB6A9AB27B681A813037BD4680BDFB
:1012C000003801401F85EB5180B483B000AF7860D7
:1012D0000B46FB70FB78002B08D07B689B899BB288
:1012E00043F400539AB27B689A8107E07B689B893C
:1012F0009BB223F400539AB27B689A810C37BD46A7
:101300005DF8047B704700BF80B483B000AF7860A5
:101310000B467B8013467B707B78002B08D07B6864
:101320009B8A9AB27B8813439AB27B689A8209E0BF
:101330007B689B8A9AB27B88DB439BB213409AB24C
:101340007B689A820C37BD465DF8047B704700BF0E
:1013500080B483B000AF78600B467B807B88C3F39A
:1013600008039AB27B689A800C37BD465DF8047B0F
:10137000704700BF80B485B000AF78600B467B80BB
:101380000023FB737B681B889AB27B8813409BB257
:10139000002B02D00123FB7301E00023FB73FB7BD6
:1013A00018461437BD465DF8047B704780B485B09D
:1013B00000AF78600B4B1B68002B02D1094B0A4A27
:1013C0001A60084B1B68FB60064B1A687B68134465
:1013D000044A1360FB6818461437BD465DF8047B69
:1013E000704700BF70090020FC1B002080B485B04E
:1013F00000AF78600023FB60094B1B68FB60FB6853
:1014000003F03803FB60FA687B681343FB60044A0F
:10141000FB6813601437BD465DF8047B704700BF5E
:101420000020024080B483B000AF78607B681A6807
:101430004FF6FE7313407A6813607B6800221A60CF
:101440007B6800225A607B6800229A607B680022D9
:10145000DA607B68434A934206D1434A424B5B6859
:1014600043F00F03536077E07B68404A934206D114
:101470003D4A3D4B5B6843F0F00353606CE07B6892
:101480003B4A934206D1384A374B5B6843F470635A
:10149000536061E07B68374A934206D1324A324B4F
:1014A0005B6843F47043536056E07B68324A934272
:1014B00006D12D4A2C4B5B6843F4702353604BE0FC
:1014C0007B682E4A934206D1274A274B5B6843F438
:1014D0007003536040E07B68294A934206D1224A58
:1014E000214B5B6843F07063536035E07B68254AAD
:1014F000934206D1244A244B5B6843F00F035360A8
:101500002AE07B68214A934206D11F4A1E4B5B6842
:1015100043F0F00353601FE07B681D4A934206D1FD
:10152000194A194B5B6843F47063536014E07B689D
:10153000184A934206D1144A134B5B6843F4704334
:10154000536009E07B68144A934205D10E4A0E4B62
:101550005B6843F4702353600C37BD465DF8047B31
:10156000704700BF08000240000002401C0002401B
:101570003000024044000240580002406C0002402B
:101580008000024008040240000402401C040240A3
:1015900030040240440402405804024080B485B044
:1015A00000AF786039600023FB607B681B68FB60DC
:1015B000FB6823F4FF4323F07003FB603B689A68E9
:1015C0003B681B6A1A433B681B691A433B685B69AB
:1015D0001A433B689B691A433B68DB691A433B68C3
:1015E0005B6A1A433B689B6A1343FA681343FB60C8
:1015F0007B68FA681A603B68DA687B685A603B6807
:101600001A687B689A603B685A687B68DA601437AE
:10161000BD465DF8047B704780B483B000AF78604E
:101620000B46FB70FB78002B06D07B681B6843F0F1
:1016300001027B681A6006E07B681A684FF6FE7349
:1016400013407A6813600C37BD465DF8047B704721
:1016500080B483B000AF78607B6803F08053002BC8
:1016600003D0064A7B68536002E0054A7B685360FA
:101670000C37BD465DF8047B704700BF0004024094
:101680000000024080B483B000AF03463960FB71B4
:1016900097F90730002B0BDA0D49FB7903F00F03A4
:1016A000043B3A68D2B21201D2B20B441A7609E076
:1016B000084997F907303A68D2B21201D2B20B4406
:1016C00083F800230C37BD465DF8047B704700BFEC
:1016D00000ED00E000E100E080B582B000AF78608E
:1016E0007B68B3F1807F01D3012311E00A4A7B6854
:1016F00023F07F43013B53604FF0FF300F21FFF792
:10170000C1FF054B00229A60034B07221A60002399
:1017100018460837BD4680BD10E000E080B582B0B5
:1017200000AF786039603B68DAB2094B1A70094B38
:101730001A687B68B2FBF3F31846FFF7CDFF4FF052
:10174000FF300021FFF79EFF0837BD4680BD00BF78
:10175000580000200000002080B400AF0B4B1B6835
:1017600001334FF47A7202FB03F2094B9B6809497B
:101770000978B3FBF1F3D31A074A1360064B1B68D1
:101780001846BD465DF8047B704700BF7409002011
:1017900010E000E0580000207809002080B400AF7D
:1017A000034B1B681846BD465DF8047B704700BFBD
:1017B0007409002080B400AF044B1B680133034A56
:1017C0001360BD465DF8047B704700BF74090020BC
:1017D00080B483B000AF03463960FB7197F90730DE
:1017E000002B0BDA0D49FB7903F00F03043B3A6839
:1017F000D2B21201D2B20B441A7609E0084997F925
:1018000007303A68D2B21201D2B20B4483F80023F7
:101810000C37BD465DF8047B704700BF00ED00E06B
:1018200000E100E080B489B000AFF860B9607A6090
:10183000FB6803F00703FB61FB69C3F10703042B9B
:1018400028BF0423BB61FB690433062B02D9FB6963
:10185000033B00E000237B61BB69012202FA03F332
:10186000013B1A46BB681A407B699A407B6901219B
:1018700001FA03F3013B19467B680B4013431846FA
:101880002437BD465DF8047B704700BF80B500AFCC
:1018900000F0B8F800F0D6F800F0E8F800F0FCF836
:1018A00080BD00BF80B582B000AF7860494B002298
:1018B0001A70494B00221A60484B00221A60484BAC
:1018C00000221A60474B00221A60474B00221A8000
:1018D000454B00225A80444B00229A80FFF73CFF80
:1018E0000246424B1A6000F0ADF8414B40225A616B
:1018F00000BFFFF731FF02463C4B1B68D31A40F292
:101900004B429342F5D93A4B40221A6100F086F8D7
:10191000FFF744FF0246354B1A6000BFFFF73EFF5A
:101920000246324B1B68D31AB3F57A7FF6D331489F
:101930002D2100F0CDF82C4B1B889BB240F2E632F3
:1019400093421BD8284B1B889AB22B4B1A802A4BE8
:101950001B88184601F0B6F802460B461046194699
:101960004FF00002254B01F03DFA02460B461046AF
:10197000194601F01FFB02467B689A601A4B5B8890
:101980009BB240F2E63293421BD8174B5B889AB267
:101990001B4B1A801A4B1B88184601F093F802461D
:1019A0000B46104619464FF00002144B01F01AFA8C
:1019B00002460B461046194601F0FCFA02467B68C7
:1019C0005A60FFF7EBFE0246084B1A600837BD4627
:1019D00080BD00BF8C0900207C0900208009002008
:1019E00084090020880900201C1200209009002092
:1019F000000C01402C12002028120020000024407E
:101A00006212002080B500AF08200121FFF788FA9C
:101A100001200121FFF784FA80BD00BF80B500AF2F
:101A2000064B40221A80054B0422DA70034B032236
:101A30009A7003480149FEF789FD80BD24120020F9
:101A4000000C014080B500AF064B40221A80054BC8
:101A50001022DA70034B03229A7003480149FEF703
:101A600075FD80BD24120020000C014080B582B0BD
:101A700000AF01200621FEF743FE40233B60002318
:101A80003B7110237B710123BB713B461846FFF766
:101A9000BDFA0837BD4680BD80B582B000AF1723C0
:101AA0003B7104237B710023BB710123FB713B1D40
:101AB000184600F0A9F804200F210022FFF7B2FE1B
:101AC000034617201946FFF783FE0837BD4680BD41
:101AD00080B485B000AF78600B46FB700F23BB73FA
:101AE00000237B730223FB7333E0FB7B7A68134490
:101AF0001B783B733B7B362B09D87B7B7A7B194960
:101B000031F8122091B2174A22F8131012E07B7BB1
:101B10007A7B144931F8122092B290B2BA7B01213B
:101B200001FA02F292B201460A4392B291B20D4A10
:101B300022F81310BB7B002B03D0BB7B013BBB7394
:101B400004E00F23BB737B7B01337B73FB7B01338F
:101B5000FB73FA7BFB789A42C7D31437BD465DF816
:101B6000047B70471C12002080B500AF4020FFF7B7
:101B7000BFFA0346002B37D01C484021FEF7A6FDD4
:101B80000346002B0AD0FFF7E7FD0246184B1A6008
:101B9000FFF7E2FD0246174B1A6022E0FFF7DCFD7B
:101BA0000246154B1A60FFF7D7FD0246134B1A6029
:101BB0000F4B1B68002B14D0114B1B78DBB219465E
:101BC0000E4B1B68DAB20A4B1B68DBB2D31ADAB2CF
:101BD0000C4B5A540A4B1B78DBB20133DAB2084B78
:101BE0001A704020FFF7A8FA80BD00BF000C01402A
:101BF0007C09002088090020840900208009002039
:101C00008C0900202C12002080B487B000AF7860CF
:101C100000237B6100233B610F23FB607B68DB7843
:101C2000002B3AD0274BDB68DB4303F4E0631B0A4D
:101C30007B617B69C3F104033B617B69FA6822FA2B
:101C400003F3FB607B685B781A463B6902FA03F397
:101C50007B617B689B781A46FB6813407A69134363
:101C60007B617B691B017B61174A7B681B78796903
:101C7000C9B213440A4683F80023134A7B681B78D1
:101C80005B09DBB218467B681B7803F01F03012158
:101C900001FA03F342F820300FE00B497B681B7810
:101CA0005B09DBB218467B681B7803F01F03012237
:101CB0009A4000F1200341F823201C37BD465DF80F
:101CC000047B704700ED00E000E100E080B58AB0E1
:101CD00000AF786039600023FB8400237B840423F9
:101CE000BB84574BFB617B689B88FB84FB8C23F098
:101CF0003F03FB8407F108031846FFF741F83B69EF
:101D0000FB61FB694F4AA2FB03239B0C7B84FA8C8B
:101D10007B8C1343FB847B68FA8C9A807B681B88DE
:101D20009BB223F001039AB27B681A800023FB84E4
:101D30003B681B68444A934215D83B681B685B00AC
:101D4000FA69B2FBF3F3BB84BB8C032B01D80423E9
:101D5000BB84FA8CBB8C1343FB847B8C01339AB21B
:101D60007B681A8440E03B68DB884BF6FF72934245
:101D700009D13B681A6813465B001344FA69B2FB49
:101D8000F3F3BB840EE03B681A6813469B001344D0
:101D90009A001344FA69B2FBF3F3BB84BB8C43F49F
:101DA0008043BB84BB8CC3F30B03002B03D1BB8CE0
:101DB00043F00103BB84BA8CFB8C13439BB26FEAE4
:101DC00043436FEA5343FB847B8C4FF4967202FBD0
:101DD00003F31E4A82FB03129211DB17D31A9BB244
:101DE00001339AB27B681A847B68FA8C9A837B6889
:101DF0001B889BB243F001039AB27B681A807B6810
:101E00001B88FB84FB8C23F4816323F00203FB8497
:101E10003B689A883B685B8913439AB2FB8C1343F7
:101E2000FB847B68FA8C1A803B689A893B681B8923
:101E300013439AB27B681A812837BD4680BD00BF24
:101E400000127A0083DE1B43A0860100D34D62108E
:101E500080B483B000AF78600B46FB70FB78002B3A
:101E600008D07B681B889BB243F001039AB27B6861
:101E70001A8007E07B681B889BB223F001039AB2AB
:101E80007B681A800C37BD465DF8047B704700BF45
:101E900080B582B000AF3B4683E803003B6818463C
:101EA000114901F019FE0346002B03D0BA880F4BED
:101EB0001A8016E03B6818460D4901F00DFE0346F6
:101EC000002B03D0BA880B4B1A800AE03B681846F7
:101ED000094901F001FE0346002B02D0BA88074BE6
:101EE0001A800837BD4680BD88820008F2090020AC
:101EF00094820008F0090020A0820008440D002010
:101F000080B582B000AF0323BB711023FB710123A6
:101F1000BB803B1D03481946FEF718FB0837BD463A
:101F200080BD00BF000C014080B400AF034B012214
:101F30005A61BD465DF8047B704700BF000C01404C
:101F400080B400AF034B01221A61BD465DF8047BEB
:101F5000704700BF000C014080B582B000AF7860D0
:101F60000B467B807B88786800211A4601F0AAFA2C
:101F70000837BD4680BD00BF80B500AFFFF70EFC3F
:101F80000246034B1A60034B01221A7080BD00BF4A
:101F9000980900209409002090B583B000AF7860C4
:101FA0000B467B8038E07B8824484FF47A717A684E
:101FB00001F0AAF903461A46214B1A60204B1B6810
:101FC0001B78002B28D01E4B1C681D4B1B68184625
:101FD00001F0FCFB0346204619461A4A042301F08F
:101FE00093F903461A46184B1A60174B1B68002BCF
:101FF00012D0134B1C68124B1B68184601F0E6FB0D
:1020000003469BB220461946FFF7A6FF0F4B01225D
:102010001A700F4B00221A700D4B1B78DBB2012B8C
:1020200009D1FFF7BBFB02460A4B1B68D31A42F2E9
:102030000F729342B7D90C37BD4690BD480D0020B2
:1020400000180020088400080418002095090020CA
:10205000940900209809002080B582B000AF0346A3
:10206000FB8049E02D484FF47A712D4A0A2301F094
:102070004BF903461A462B4B1A602A4B1B681B78F8
:10208000002B39D029E0254801F0A0FB0346234866
:102090001946254A092301F037F903461A46234B0E
:1020A0001A60224B1B68002B17D01E4B1B681A4668
:1020B0001E4B1B68D31A1A461D4B1A60194B1A681F
:1020C000FB8809339BB210461946FFF745FF194BB1
:1020D00001221A70184B00221A70174B1B78DBB2C2
:1020E000012B09D1FFF75AFB0246144B1B68D31A88
:1020F00042F20F729342C6D90F4B1B78DBB2012B11
:1021000009D1FFF74BFB02460C4B1B68D31A42F276
:102110000F729342A6D90837BD4680BD480D0020F6
:1021200010840008001800201C84000804180020F7
:10213000A00900209509002094090020980900209A
:1021400080B582B000AF786010E000BF18488021F1
:10215000FFF710F90346002BF8D07B685A1C7A6011
:102160001B789BB212481946FFF7F2F87B681B7880
:10217000002BEAD100BF0E488021FFF7FBF8034691
:10218000002BF8D00A480D21FFF7E2F800BF0848FD
:102190008021FFF7EFF80346002BF8D0FFF7ECFEA5
:1021A00003480A21FFF7D4F80837BD4680BD00BFB9
:1021B0000048004090B585B000AF0346FB71FB7945
:1021C000274A52F82330FB6010E000BF25488021E9
:1021D000FFF7D0F80346002BF8D0FB685A1CFA60D2
:1021E0001B789BB21F481946FFF7B2F8FB681B78B3
:1021F000002BEAD1FFF7C0FE00BF1A488021FFF78D
:10220000B9F80346002BF8D016480D21FFF7A0F8C7
:1022100000BF14488021FFF7ADF80346002BF8D02B
:1022200010480A21FFF794F8FB790C2B04D10E48D3
:102230000421FFF7B1FE10E0FB79094A52F8234070
:10224000FB79074A52F82330184601F0BFFA0346DB
:102250009BB220461946FFF79FFE1437BD4690BD3E
:10226000600000200048004008840008B0B58AB033
:1022700000AF786039603868204901F03DFD0020EA
:102280001E4901F039FD02461D4B1A601C4B1B68AC
:10229000184600F0DFFE0346DBB23B73002019490D
:1022A00001F02AFD03463B610020174901F024FD9F
:1022B00003467B610020144901F01EFD0346BB610B
:1022C0000020124901F018FD0020114901F014FD11
:1022D0000346FB6100200F4901F00EFD03463B62FF
:1022E0007B681D4607F10C040FCC0FC594E807006E
:1022F00085E8070078682837BD46B0BD38840008F7
:10230000101400203C840008408400084484000825
:10231000488400084C84000880B586B000AFF8609F
:102320000B467A607B817B899B08BB820023FB8202
:1023300010E0FB8A9B00FA6813441B681846796812
:1023400001F0CAFB0346002B01D0FB8A07E0FB8AA1
:102350000133FB82FA8ABB8A9A42EAD300231846E9
:102360001837BD4680BD00BF84B080B582B000AFD5
:1023700007F1100E8EE80F00BB690B4814211A46B6
:10238000FFF7CAFF0346FB80FB88002B03D0FB88C6
:102390007B717B7900E0002318460837BD46BDE815
:1023A000804004B0704700BF1400002090B583B097
:1023B00000AF0023FB7119484FF47A71184A0523C6
:1023C00000F0A2FF03461A46164B1A60154B1B6815
:1023D000002B1DD0134B1B681348194601F098F9C8
:1023E00012480021FFF718F90E4B1C680D4B1B68B3
:1023F000184601F0EBF903469BB220461946FFF759
:10240000ABFD06484FF47A71FDF7FEFE0123FB7128
:10241000FB7918460C37BD4690BD00BF480D002023
:10242000A8830008E81300200C18002030000240A8
:1024300098B500AF2B484FF47A712B4A0B2300F06C
:1024400063FF03461A46294B1A60284B1B68002B72
:1024500047D0264B1B682648194601F059F92548F4
:102460000021FFF7D9F8214B1C68204B1B68184648
:1024700001F0ACF903469BB220461946FFF76CFD0C
:1024800018484FF47A71FDF7BFFE19481A4901F058
:1024900033FC0020194901F02FFC0246184B1A604A
:1024A0000020154901F028FC0020144901F024FC0B
:1024B0000246134B5A6000200F4901F01DFC00201A
:1024C0000E4901F019FC02460D4B9A6000200A49A2
:1024D00001F012FC0020094901F00EFC0246084BF5
:1024E000DA6098BD480D002050840008E8130020F1
:1024F0000C18002030000240388400085C8400087A
:1025000038110020B0B5A0B004AFF862B9627A62A9
:10251000B54B00221A76FFF741F90246B34B1A6019
:10252000B3484FF47A71B34A042300F0EDFE03463A
:102530001A46B14B1A60B04B1B68002B00F0458166
:10254000AD4B1B68AD48194601F0E2F8AC480021DC
:10255000FFF762F8A84B1C68A74B1B68184601F0F0
:1025600035F903469BB220461946FFF7F5FCA04813
:102570004FF47A71FDF748FE9B4C3B4618469F4945
:10258000FFF774FE25463C460FCC0FC594E80700C4
:1025900085E80700944B6C4603F1100207CA84E8F3
:1025A00007000FCBFFF7E0FE034687F86E3097F881
:1025B0006E30022B40F0ED808B4BDB6818462F21EC
:1025C00001F040F8B866BB6E002B03D0BB6E013340
:1025D000854AD360844BDB6818463F2101F032F80E
:1025E0000346002B00F0D4807F4BDB681846262181
:1025F00001F028F8034687F8673097F86730002B1A
:1026000000F08780002387F86F30774BDB6818462F
:102610007C4901F071FB02467B4B1A6074E07B4BF6
:10262000FB654FF6FF73A7F8603097F86F30002B0B
:1026300008D1754B1B681846754901F05DFB0346D0
:10264000FB6505E00020724901F056FB0346FB657F
:10265000FB6D6E4A934202D0FB6D002B1BD197F8A5
:102660006F30002B0CD0604B01221A76694B9A68B0
:10267000684B1B68104619467A6ABB6AFEF770F908
:10268000FB6A594A1C4615460FCD0FC495E8070052
:1026900084E80700A3E000205F4901F02DFB02461B
:1026A0005E4B1A605D4B1B68184600F0D3FC034676
:1026B0009BB2A7F86030B7F86030022B15D807F14D
:1026C0005C0393E80300FFF7E3FB474B01221A7614
:1026D00097F86F30DB0007F1700213443C3B07F1C1
:1026E0005C0292E8030083E803004A4B9A68494B76
:1026F0001B68104619467A6ABB6AFEF731F997F8EB
:102700006F30013387F86F3097F86F30032B86D91D
:1027100033E0354BDB6818463A4901F0EDFA0246E2
:10272000394B1A60394B7B654FF6FF73A7F8583069
:10273000354B1B681846364901F0DEFA03467B65C7
:102740000020354901F0D8FA0246344B1A60334B69
:102750001B68184600F07EFC03469BB2A7F8583071
:10276000B7F85830022B08D807F1540393E8030058
:10277000FFF78EFB1C4B01221A76264B9A68254BDD
:102780001B68104619467A6ABB6AFEF7E9F81CE036
:102790001BE097F86E30012B17D11E4B9A681D4B2A
:1027A0001B68104619467A6ABB6AFEF7D9F80E4BC9
:1027B00001221A76FB6A0C4A1C4615460FCD0FC43F
:1027C00095E8070084E8070009E0FB6A064A1C4612
:1027D00015460FCD0FC495E8070084E80700F86A96
:1027E0007037BD46B0BD00BF280D00205409002041
:1027F000480D0020CC830008F41B00201414002096
:102800003000024060840008F8130020648400084F
:1028100068840008381100206C840008F41300203C
:1028200081F0004102E000BF83F0004330B54FEA81
:1028300041044FEA430594EA050F08BF90EA020FEE
:102840001FBF54EA000C55EA020C7FEA645C7FEA81
:10285000655C00F0E2804FEA5454D4EB5555B8BFA4
:102860006D420CDD2C4480EA020281EA030382EA15
:10287000000083EA010180EA020281EA0303362DA7
:1028800088BF30BD11F0004F4FEA01314FF4801C7A
:102890004CEA113102D0404261EB410113F0004F8C
:1028A0004FEA03334CEA133302D0524263EB430343
:1028B00094EA050F00F0A780A4F10104D5F1200EE1
:1028C0000DDB02FA0EFC22FA05F2801841F100013C
:1028D00003FA0EF2801843FA05F359410EE0A5F110
:1028E00020050EF1200E012A03FA0EFC28BF4CF041
:1028F000020C43FA05F3C01851EBE37101F00045F7
:1029000007D54FF0000EDCF1000C7EEB00006EEB03
:102910000101B1F5801F1BD3B1F5001F0CD349088D
:102920005FEA30004FEA3C0C04F101044FEA4452E4
:1029300012F5800F80F09A80BCF1004F08BF5FEA6B
:10294000500C50F1000041EB045141EA050130BD4B
:102950005FEA4C0C404141EB010111F4801FA4F1EE
:102960000104E9D191F0000F04BF01460020B1FA43
:1029700081F308BF2033A3F10B03B3F120020CDA7B
:102980000C3208DD02F1140CC2F10C0201FA0CF059
:1029900021FA02F10CE002F11402D8BFC2F1200CBE
:1029A00001FA02F120FA0CFCDCBF41EA0C01904074
:1029B000E41AA2BF01EB0451294330BD6FEA0404BD
:1029C0001F3C1CDA0C340EDC04F11404C4F12002A8
:1029D00020FA04F001FA02F340EA030021FA04F3BA
:1029E00045EA030130BDC4F10C04C4F1200220FA11
:1029F00002F001FA04F340EA0300294630BD21FA4F
:102A000004F0294630BD94F0000F83F4801306BF14
:102A100081F480110134013D4EE77FEA645C18BF08
:102A20007FEA655C29D094EA050F08BF90EA020F9F
:102A300005D054EA000C04BF1946104630BD91EA97
:102A4000030F1EBF0021002030BD5FEA545C05D19A
:102A50004000494128BF41F0004130BD14F58004D9
:102A60003CBF01F5801130BD01F0004545F0FE414D
:102A700041F470014FF0000030BD7FEA645C1ABF82
:102A8000194610467FEA655C1CBF0B46024650EAB9
:102A9000013406BF52EA033591EA030F41F40021E5
:102AA00030BD00BF90F0000F04BF0021704730B56B
:102AB0004FF4806404F132044FF000054FF0000140
:102AC00050E700BF90F0000F04BF0021704730B501
:102AD0004FF4806404F1320410F0004548BF4042D6
:102AE0004FF000013EE700BF42004FEAE2014FEA2B
:102AF00031014FEA02701FBF12F07F4393F07F4F06
:102B000081F06051704792F0000F14BF93F07F4F37
:102B1000704730B54FF4607401F0004521F000417A
:102B200020E700BF50EA010208BF704730B54FF000
:102B300000050AE050EA010208BF704730B511F005
:102B4000004502D5404261EB41014FF4806404F13D
:102B500032045FEA915C3FF4DCAE4FF003025FEABF
:102B6000DC0C18BF03325FEADC0C18BF033202EB47
:102B7000DC02C2F1200300FA03FC20FA02F001FAA1
:102B800003FE40EA0E0021FA02F11444C1E600BF40
:102B900070B54FF0FF0C4CF4E06C1CEA11541DBFF3
:102BA0001CEA135594EA0C0F95EA0C0F00F0DEF8BE
:102BB0002C4481EA030621EA4C5123EA4C5350EAA3
:102BC000013518BF52EA033541F4801143F48013F4
:102BD00038D0A0FB02CE4FF00005E1FB02E506F085
:102BE0000042E0FB03E54FF00006E1FB03569CF0DA
:102BF000000F18BF4EF0010EA4F1FF04B6F5007FE0
:102C000064F5407404D25FEA4E0E6D4146EB060651
:102C100042EAC62141EA55514FEAC52040EA5E50DA
:102C20004FEACE2EB4F1FD0C88BFBCF5E06F1ED884
:102C3000BEF1004F08BF5FEA500E50F1000041EBBB
:102C4000045170BD06F0004646EA010140EA020068
:102C500081EA0301B4EB5C04C2BFD4EB0C0541EA8A
:102C6000045170BD41F480114FF0000E013C00F39F
:102C7000AB8014F1360FDEBF002001F0004170BDC3
:102C8000C4F10004203C35DA0C341BDC04F11404DC
:102C9000C4F1200500FA05F320FA04F001FA05F268
:102CA00040EA020001F0004221F0004110EBD37035
:102CB00021FA04F642EB06015EEA430E08BF20EA61
:102CC000D37070BDC4F10C04C4F1200500FA04F304
:102CD00020FA05F001FA04F240EA020001F0004196
:102CE00010EBD37041F100015EEA430E08BF20EA09
:102CF000D37070BDC4F1200500FA05F24EEA020E51
:102D000020FA04F301FA05F243EA020321FA04F07F
:102D100001F0004121FA04F220EA020000EBD37036
:102D20005EEA430E08BF20EAD37070BD94F0000F36
:102D30000FD101F00046400041EB010111F4801F6A
:102D400008BF013CF7D041EA060195F0000F18BF1B
:102D5000704703F00046520043EB030313F4801F57
:102D600008BF013DF7D043EA0603704794EA0C0F11
:102D70000CEA135518BF95EA0C0F0CD050EA410627
:102D800018BF52EA4306D1D181EA030101F00041A4
:102D90004FF0000070BD50EA410606BF10461946CC
:102DA00052EA430619D094EA0C0F02D150EA0136D8
:102DB00013D195EA0C0F05D152EA03361CBF104619
:102DC00019460AD181EA030101F0004141F0FE41B8
:102DD00041F470014FF0000070BD41F0FE4141F43C
:102DE000780170BD70B54FF0FF0C4CF4E06C1CEA3C
:102DF00011541DBF1CEA135594EA0C0F95EA0C0FF1
:102E000000F0A7F8A4EB050481EA030E52EA0335AB
:102E10004FEA013100F088804FEA03334FF08055CC
:102E200045EA131343EA12634FEA022245EA1115F9
:102E300045EA10654FEA00260EF000419D4208BFAA
:102E4000964244F1FD0404F5407402D25B084FEA57
:102E50003202B61A65EB03055B084FEA32024FF403
:102E600080104FF4002CB6EB020E75EB030E22BF60
:102E7000B61A754640EA0C005B084FEA3202B6EB20
:102E8000020E75EB030E22BFB61A754640EA5C00CF
:102E90005B084FEA3202B6EB020E75EB030E22BF5F
:102EA000B61A754640EA9C005B084FEA3202B6EB60
:102EB000020E75EB030E22BFB61A754640EADC001F
:102EC00055EA060E18D04FEA051545EA16754FEA81
:102ED00006164FEAC30343EA52734FEAC2025FEA9F
:102EE0001C1CC0D111F4801F0BD141EA00014FF02E
:102EF00000004FF0004CB6E711F4801F04BF0143FF
:102F00000020B4F1FD0C88BFBCF5E06F3FF6AFAE1A
:102F1000B5EB030C04BFB6EB020C5FEA500C50F1AA
:102F2000000041EB045170BD0EF0004E4EEA11312D
:102F300014EB5C04C2BFD4EB0C0541EA045170BD34
:102F400041F480114FF0000E013C90E645EA060E78
:102F50008DE60CEA135594EA0C0F08BF95EA0C0FA6
:102F60003FF43BAF94EA0C0F0AD150EA01347FF4EE
:102F700034AF95EA0C0F7FF425AF104619462CE7C5
:102F800095EA0C0F06D152EA03353FF4FDAE104628
:102F9000194622E750EA410618BF52EA43067FF479
:102FA000C5AE50EA41047FF40DAF52EA43057FF409
:102FB000EBAE12E74FEA4102B2F1E04324BFB3F5B2
:102FC000001CDCF1FE5C0DD901F0004C4FEAC002A0
:102FD0004CEA5070B2F1004F40EB830008BF20F084
:102FE0000100704711F0804F21D113F13872BCBF3E
:102FF00001F00040704741F480114FEA5252C2F193
:103000001802C2F1200C10FA0CF320FA02F018BFDB
:1030100040F001004FEAC1234FEAD32303FA0CFC2E
:1030200040EA0C0023FA02F34FEA4303CCE77FEABD
:10303000625307D150EA01331EBF4FF0FE4040F407
:103040004000704701F0004040F0FE4040F40000B6
:10305000704700BF00210A2200F016BF2DE9F041A1
:103060004FF0010E744600254FF0FF3663198B4276
:1030700000EB06070DD23F5D10F803C0BC452DD212
:103080001D460124C6EB030E63198B4200EB0607B5
:10309000F1D34FF001084446C2F800E000254FF09C
:1030A000FF376319994200EB070E0ED91EF804E0B2
:1030B00010F803C0F44518D91D460124C7EB0308D6
:1030C0006319994200EB070EF0D80137701C874254
:1030D00024BF3846C2F80080BDE8F0810CD04FF024
:1030E000010E2E4674467544C0E709D04FF0010822
:1030F0002F4644464544D4E7744505D00134B5E72E
:10310000444504D00134CCE71D460124AEE71D46FA
:103110000124C6E72DE9F04FADF22C4D904607464D
:103120008B461046194609AA1E46FFF797FF8246AE
:1031300009AA0DF2244142F8046F8A42FBD1002E05
:1031400000F0DB80741E2146424608EB06050DF1B7
:10315000280912F8013BAA4249F8231001F1FF3176
:10316000F7D1099940464144524603F0D1FB00286B
:103170006DD1099B0AF1FF320393F31A049308EB14
:103180000203C6EB0B010693CAF101030546059243
:1031900001910793CDF808A00AE020B1049A0399A1
:1031A0008B4238BF13461D44019B0020AB4246D3DF
:1031B00007EB050B1BF8043059F82330002BECD13A
:1031C000029B834238BF0346A34212D25A19BE5C07
:1031D00018F803E03A44B64508EB030106D033E0A3
:1031E00011F801EF12F8016FB6452DD10133A3425A
:1031F000F6D3029B0599834298BF194616D9059BC1
:10320000069EEA18BB5C36783A449E427AD1069B09
:1032100008EB000A06E013F801ED12F8016DB6455F
:1032200004D16146534501F1FF3CF4D1013088429D
:103230005ED8039B04981D44019BAB42B8D200208A
:103240000DF22C4DBDE8F08F079A1544ABE7CAEBA1
:103250000601514538BF51460AF1FF3301934344FB
:1032600001310293CAF10103C6EB0B0204914FF046
:10327000000C08EB0A0B039307EB0C00035D59F8F5
:1032800023306BBBA24515D20CEB0A017B5C9BF88B
:10329000005039449D4218BF534625D15D465346E0
:1032A00005E015F801EF11F8016FB6451CD10133A7
:1032B000A342F6D3019B0133C2D0019B029E0CEBCB
:1032C00003017B5C357839449D4208D13346434540
:1032D000B6D013F8016D11F8015DAE42F7D0049B32
:1032E0009C446245C8D2AAE703998C449C44F8E701
:1032F00058460DF22C4DBDE8F08F4FF0FF340DF124
:1033000028092EE7029991E72DE9F04F814689B00F
:10331000002B7CD08B428B461C466FD81F2B05465A
:1033200070D8117890465A4603F0A8FA81460028D2
:1033300064D0012C6BD02A1A02EB0B05AC425DD88D
:10334000214607AA4046FFF789FE079983460246B1
:103350004144404603F0DCFA002862D18446079BD2
:103360000BF1FF3A0393E31A049308EB0A032A1BB9
:103370000593CBF1010301920293DC45634638BF0C
:103380005B469C4213D91A1819F8025018F80360CA
:103390004A44AE4208EB030106D03CE011F8016F4D
:1033A00012F8015FAE4236D101339C42F6D8E345B4
:1033B000514640F28480059E00EB0A0219F8023063
:1033C00035784A449D427AD1334608EB0C0E06E02C
:1033D00013F8017D12F8016DB74204D129467345F7
:1033E00001F1FF35F4D10CF1010C8C4559D8039B48
:1033F000DDF810C01844019B8342BED2002009B002
:10340000BDE8F08FFFF786FE09B0BDE8F08F4846B3
:1034100009B0BDE8F08F029A4FF0000C1044184438
:10342000E9E7CBEB04035B4538BF5B4601330BF1A7
:10343000FF3C02930793CBF101032A1B08EB0C0A14
:10344000002008EB0B0E01935C4514D900EB0B0137
:1034500019F801309EF8005049449D4225D1754627
:103460005B4605E015F8017F11F8016FB7421DD1E9
:1034700001339C42F6D8BCF1FF3F12D000EB0C01A7
:1034800019F801309AF8005049449D4214D153462E
:1034900005E013F8016D11F8015DAE420CD1434512
:1034A000F7D1484409B0BDE8F08F5B460199084464
:1034B00018448242C8D2A1E7029B1844F9E7594652
:1034C00091E700BF70B4840746D0541E002A41D053
:1034D000CDB2034602E0621EE4B3144603F8015B7A
:1034E0009A07F8D1032C2ED9CDB245EA05250F2C29
:1034F00045EA054519D9264603F11002103E0F2E64
:1035000042F8105C42F80C5C42F8085C42F8045C3B
:1035100002F11002F2D8A4F1100222F00F0204F01E
:103520000F041032032C13440DD91E462246043AD0
:10353000032A46F8045BFAD8221F22F00302043261
:10354000134404F003042CB1C9B21C4403F8011B5A
:10355000A342FBD170BC704714460346C2E700BFCC
:103560000CB4F0B5234B00299DB01D683CDB4FF433
:1035700002730C4602900690ADF814304FF6FF77B8
:1035800023AE15D04C1E229A3346284602A9049435
:103590000794ADF81670019600F082FC421C20DB07
:1035A000029B00221A701DB0BDE8F04002B07047C7
:1035B0003346284602A9229A04940794ADF816705F
:1035C000019600F06DFC431C04DB1DB0BDE8F0402B
:1035D00002B070478B232B601DB0BDE8F04002B0F5
:1035E00070478B232B60DBE78B232B604FF0FF3082
:1035F000EBE700BF000500200EB4F0B506464FF61D
:10360000FF7E9CB021AC54F8042B0D4923466FF08B
:10361000004508684FF4027702A9029606960194C5
:10362000ADF816E0ADF814700495079500F038FC7D
:10363000029B00221A701CB0BDE8F04003B0704736
:1036400000050020C9B270B4002933D0850710D01E
:103650000378002B59D0994218BF431C06D127E0AC
:1036600013F8012B002A4DD0914221D09A07184619
:10367000F6D141EA0126036846EA064601E050F821
:10368000043F83EA0605A5F10134A3F1013224EADF
:10369000050422EA0303234313F0803FEFD00378AD
:1036A00023B932E010F8013F002B2ED09942F9D116
:1036B00070BC704784070BD00378002BF8D0431CF4
:1036C00003E002780133002AF2D099071846F8D1B6
:1036D0000268A2F1013323EA020313F0803F08D10C
:1036E00050F8042FA2F1013323EA020313F0803FC4
:1036F000F6D00378002BDBD010F8013F002BFBD174
:1037000070BC7047104670BC7047184670BC70475C
:1037100080EA0102844612F0030F4FD111F0030F2B
:1037200032D14DF8044D11F0040F51F8043B0BD089
:10373000A3F101329A4312F0803F04BF4CF8043BDE
:1037400051F8043B16D100BF51F8044BA3F10132EC
:103750009A4312F0803FA4F101320BD14CF8043BA4
:10376000A24312F0803F04BF51F8043B4CF8044BD5
:10377000EAD023460CF8013B13F0FF0F4FEA332346
:10378000F8D15DF8044B704711F0010F06D011F825
:10379000012B0CF8012B002A08BF704711F0020F13
:1037A000BFD031F8022B12F0FF0F16BF2CF8022BFE
:1037B0008CF8002012F47F4FB3D1704711F8012B21
:1037C0000CF8012B002AF9D1704700BF20F003014B
:1037D00010F00300C0F1000051F8043B00F1040CAC
:1037E0004FEACC0C6FF000021CBF22FA0CF213431C
:1037F0004FF0010C4CEA0C2C4CEA0C4CA3EB0C02E5
:1038000022EA030212EACC1204BF51F8043B04304E
:10381000F4D0C2F1000102EA0102B2FA82F2C2F16E
:103820001F0200EBD20070472DE9F0414FF0010E6E
:10383000744600254FF0FF3663198B4200EB0607F4
:103840000DD23F5D10F803C0BC452DD21D460124AA
:10385000C6EB030E63198B4200EB0607F1D34FF062
:1038600001084446C2F800E000254FF0FF37631915
:10387000994200EB070E0ED91EF804E010F803C0C1
:10388000F44518D91D460124C7EB03086319994272
:1038900000EB070EF0D80137701C874224BF384672
:1038A000C2F80080BDE8F0810CD04FF0010E2E462A
:1038B00074467544C0E709D04FF001082F464446CE
:1038C0004544D4E7744505D00134B5E7444504D0F8
:1038D0000134CCE71D460124AEE71D460124C6E7AE
:1038E0002DE9F04FADF2144D164605468B461046B5
:1038F000194603AA1C46FFF797FF804603AB0DF25B
:103900000C4243F8044F9342FBD15CB13246631E34
:10391000371904A812F8011BBA4240F8213003F10C
:10392000FF33F7D1039930463144424602F0F0FFAD
:1039300000286DD108F1FF330093F31882460193FC
:1039400023468146544658469A4609EB0A073A1AD6
:103950000021284402F092FF002840F0AC80002FA4
:1039600000F0A980EB1913F8012C04AB53F82230B6
:103970004BB124B1039A934201D2C2EB0A0399449A
:1039800000243846E1E74445234638BF43460AF160
:10399000FF3E734513D203EB0902A85C16F803C07F
:1039A0002A44844506EB030106D02DE011F801CF2F
:1039B00012F8010F844527D101337345F6D34445EE
:1039C000009980F08780009B019809EB0302AB5CB3
:1039D00000782A4498427DD1019B06EB040B06E057
:1039E00013F801ED12F8010D864504D161465B45DF
:1039F00001F1FF3CF4D101348C4256D8039C384687
:103A0000A144C4EB0A04A0E7C8F101029144B6E75F
:103A1000C8EB0403434538BF434608F1FF37013381
:103A20000393F3195846A246C34698464FF000093F
:103A300009EB0A04221A0021284402F01FFFD0BB20
:103A4000CCB32B1913F8012C04AB53F82230C3BBB1
:103A50000AF1FF30834514D209EB0B02AB5C16F878
:103A60000BE02A449E4506EB0B015B4606D02BE09B
:103A700011F801CF12F801EFF44525D1013383424B
:103A8000F6D37B1C11D009EB0702AB5C98F8001051
:103A90002A44994214D1434605E013F8010D12F867
:103AA000011D88420CD1B342F7D105EB09000DF29C
:103AB000144DBDE8F08F00200DF2144DBDE8F08FDD
:103AC000039B99442046B3E7CBF10102914499440A
:103AD0002046ADE741468EE70278002A00F00381D8
:103AE0002DE9F04F91F8008085B04346B8F1000F02
:103AF00015D0844601F1010E012402E01EF8013BBD
:103B000063B19A4214BF002404F001041CF8012F91
:103B10007746002AF2D19EF800301BB934B105B0C7
:103B2000BDE8F08F002005B0BDE8F08F0E460546D9
:103B300041460130FFF786FDBC1B07460028F1D047
:103B4000012CECD02819874294BFC7EB000B4FF033
:103B5000010B1F2C08D93846594632462346FFF739
:103B6000BFFE05B0BDE8F08F214603AA3046FFF73F
:103B70005BFE0399804602463144304602F0C8FE9F
:103B8000002858D181460546B246584608F1FF3311
:103B90000193F31800932E19321A0021384402F0D1
:103BA0006DFE0028BED1002EBCD0C1454B4638BFAB
:103BB00043469C4212D95A19B95C1AF803003A4498
:103BC00088420AEB030E06D02DE01EF8010F12F812
:103BD000011F884227D101339C42F6D8019BC8457A
:103BE000194640F283800098EA18BB5C00783A449A
:103BF00098427BD1009B0AEB090B06E013F801CD3C
:103C000012F801EDF44504D101465B4501F1FF30A6
:103C1000F4D109F1010989456AD8039B30461D4456
:103C2000C3EB0409B7E7C8F1010215441D444FF086
:103C300000093046AFE7C8EB0403434508F1FF3203
:103C400038BF434606EB02095846CB46914601333E
:103C500003934FF0000A0AEB04052A1A00213844A6
:103C600002F00CFE00287FF45DAF002D3FF45AAF48
:103C7000444514D90AEB0802BB5C16F808003A4424
:103C8000984206EB0801434606D022E011F801EF06
:103C900012F8010F86451CD101339C42F6D8B9F1C8
:103CA000FF3F11D00AEB0902BB5C9BF800103A44BD
:103CB000994214D15B4605E013F8010D12F8011D7D
:103CC00088420CD1B342F7D107EB0A0005B0BDE83A
:103CD000F08FC8F1010292449A442846BBE7039B47
:103CE00028469A44B7E70B7823B97047414690E7D6
:103CF000781914E700207047024A012312685C32E9
:103D000000F002B800050020F0B420B307460D46CD
:103D100017F8016B01E0A64216D015F8014B002CF4
:103D2000F9D1EEB13E460C4616F8015B00E073B1E6
:103D300014F8013BAB42FAD15DB100233B70166031
:103D400006463046F0BC704763B13846DEE737467A
:103D5000E8E72E46F3E710680028D7D10646F0E7DB
:103D60001660EEE7176006460370EAE72DE9F04FAC
:103D7000444C83460E46D4F800E000E02646344624
:103D800014F8015B0EEB0500407800F0080000F02D
:103D9000FF080028F2D12D2D4BD02B2D04BF7578B4
:103DA000B41C1BB1102B60D09A4603E0302D54D0C8
:103DB0000A239A46B8F1000F14BF4FF000406FF08D
:103DC0000040B0FBFAF90027BC460AFB19000CE0E2
:103DD000303DAB4219DD7E1C05D0CC4524D821D026
:103DE0000AFB0C5C012714F8015B0EEB05067678E4
:103DF00016F0040FECD116F0030606D0012E0CBF0E
:103E000037265726AD1BAB42E5DC7B1C16D0C8F12C
:103E100000008CEA000040444AB107B1611E116005
:103E2000BDE8F08F8542DBDD4FF0FF37DBE7BDE813
:103E3000F08FB41C75784FF00108B2E7B8F1000FAD
:103E40004FF0220314BF4FF000406FF00040CBF85A
:103E50000030002AE2D1BDE8F08F237803F0DF03C1
:103E6000582B09D008239A46A4E7302D9CD12078FE
:103E700000F0DF00582897D14FF0100A65785346BC
:103E8000023497E7D400002030B40D46034C1346AB
:103E900001462A46206830BCFFF768BF00050020B5
:103EA0002DE9F04FC1B089460A920E93089002F0B6
:103EB0005FFA036818461793FFF788FCB9F80C30CF
:103EC00018901C0604D5D9F81030002B01F0C280E0
:103ED00030AF3C464E4600231393169319930B9331
:103EE000259324932397149315930A9D2B78002BE5
:103EF00000F0A980252B02D1A5E0252B03D015F8D1
:103F0000013F002BF9D10A9BEB1A73B1249A259932
:103F100001320A981944072A84E80900259124925D
:103F200072DC08340B9A1A440B922B78002B00F0A9
:103F3000E28700231A46691C6D788DF86F300C9368
:103F400007934FF0FF3A4B1CA5F12001582900F2CE
:103F5000EA83DFE811F06D02E803E803D102E80329
:103F6000E803E803E803E803E803BC020D02E80302
:103F7000F4011102E803D8027B027B027B027B0280
:103F80007B027B027B027B027B02E803E803E803FF
:103F9000E803E803E803E803E803E803E8038A0228
:103FA000DF02E803DF02E803E803E803E803CB03EA
:103FB000E803E8032F03E803E803E803E803E80362
:103FC0004D03E803E8036703E803E803E803E803B5
:103FD000E803E803E803E803E803E80382032B02AD
:103FE000DF02DF02DF02CA022B02E803E803B202AB
:103FF000E803D203FB0119037402E803A303E803F7
:104000007A00E803E80347020898314623AA079399
:1040100003F066F850B93C46079B83E708983146A1
:1040200023AA03F05DF8002800F08581B146B9F8B5
:104030000C3013F0400F0B9B18BF4FF0FF331846A6
:1040400041B0BDE8F08F0A9D6FE70A93079B980681
:1040500040F1D7820E9B03F1070929F0070303F112
:104060000802D3E900890E92012300229446CDF87C
:1040700044A08DF86F20BAF1000F03DB079A22F0FD
:104080008002079258EA090240F06F83BAF1000FEC
:1040900000F07484012B00F07283022B00F0C284C4
:1040A00039464FEAD80242EA49724FEAD90008F08D
:1040B000070381469046303358EA090201F8013D72
:1040C000EFD1079A1091D20700F17F857B1A0D93EB
:1040D0000D9A53469245B8BF134609930023129395
:1040E000BCF1000F02D0099B01330993079B13F029
:1040F00002030F9302D0099B02330993079B13F02D
:10410000840940F02F830C9B099AC2EB0308B8F195
:10411000000F40F32783B8F1100F2599249ADFF898
:1041200070A529DD53464FF0100BC246A8461D4628
:1041300006E0AAF1100ABAF1100F04F1080417DD25
:1041400001321031072A2591249284E82008F0DDFD
:104150000898314623AA02F0C3FF00287FF466AF17
:10416000AAF1100ABAF1100F3C462599249AE7DC0F
:104170002B464546D0469A46013208EB010B072AEA
:10418000CDF894B02492C4F800A0C4F8048000F3E1
:10419000DE829DF86FC00834BCF1000F0FD0249B65
:1041A0000BF1010B01330DF16F010122072BCDF84B
:1041B00094B0249384E8060000F3FD8308340F9B39
:1041C00073B1249B0BF1020B01331CA90222072BB4
:1041D000CDF894B0249384E8060000F3F983083402
:1041E000B9F1800F00F03483119B0D9AC2EB030AE2
:1041F000BAF1000F3CDDBAF1100F249ADFF8949465
:104200002BDD49465B46A9464FF01008DDF820B08B
:104210000D4606E0AAF1100ABAF1100F04F10804E5
:1042200017DD01321033072A2593249284E82001F8
:10423000F0DD5846314623AA02F052FF00287FF4F1
:10424000F5AEAAF1100ABAF1100F3C46259B249A4C
:10425000E7DC9B462B464D4699460132D344072A5C
:10426000CDF894B0249284E8000600F398830834D3
:10427000079BD90500F18F82249B0D990133109A79
:104280008B44072BCDF894B022606160249300F337
:10429000B8830834079B5A0741D50C9B099A9D1A8D
:1042A000002D3CDD102D249BDFF8E4A323DD4FF02F
:1042B00010085A46DDF8209004E0103D102D04F15E
:1042C000080417DD01331032072B25922493C4F81C
:1042D00000A0C4F80480F0DD4846314623AA02F06D
:1042E000FFFE00287FF4A2AE103D102D3C46259A1B
:1042F000249BE7DC93460133AB44072BCDF894B005
:104300002493C4F800A0656009DD0898314623AA0B
:1043100002F0E6FE00287FF489AEDDF894B00B9B36
:10432000099A0C998A42ACBF9B185B180B93BBF19E
:10433000000F7FF473AE002324933C46D5E5194665
:10434000079840F0040007901D78FCE50A93079B4E
:1043500013F0200300F038810E9B03F1070929F0C8
:10436000070303F10802D3E900890E9200237CE6DB
:104370001D7819462B22E6E51D78591C2A2D00F0E0
:10438000E587A5F1300009280B464FF0000A3FF6FB
:10439000DBAD13F8015B0AEB8A0A00EB4A0AA5F1D0
:1043A00030000928F5D94AEAEA7ACDE50A93079B55
:1043B0008DF86F20980662D50E9B03F1070929F04E
:1043C0000709D9E9002309F10801904699460E91A1
:1043D000002A73F1000364DB9DF86FC0CDF844A0A0
:1043E000012348E60A93A74B8DF86F201693079B8D
:1043F0009B0640F120810E9B03F1070929F007037A
:1044000003F108020E92D3E90089079BD90740F116
:10441000228158EA090300F01E81079A302342F0F6
:1044200002028DF870308DF87150079202231CE65D
:10443000002A40F0E5841D781946202283E507997B
:1044400041F0200107911D7819467CE5A5F1300067
:10445000002113F8015B01EB810100EB4101A5F1A3
:1044600030000928F5D90C916EE50A93079B8DF869
:104470006F2043F010030793079B98069CD4079B7B
:10448000D90640F1C1840E9A13461B6804320E927D
:104490004FEAE3791A4698464B46002A73F1000327
:1044A0009ADA4FF02D0CD8F1000869EB49098DF824
:1044B0006FC0CDF844A00123DDE51D7807996C2D70
:1044C00000F0258541F01001079119463BE50E9D4E
:1044D000296808460C912946002801F10401C0F220
:1044E0001D850E911D7819462DE5079941F0400173
:1044F00007911D78194626E5079941F001010791BA
:104500001D7819461FE5079941F0800107911D7834
:10451000194618E50A93079B8DF86F2013F0080FD2
:104520000E9BD34603F1070900F0378429F00703F7
:1045300003F108020E921A685B681492159315999C
:10454000149802F08FFD01281599149840F00B84FF
:104550000022002303F050FA002840F039869DF82D
:104560006FC0079B484A23F0800307931346DFF888
:1045700028E10321472DD8BF7346002009911190EF
:1045800010930D911290ABE50E9907980A93302382
:104590000A688DF870303B4B782540F002000431FA
:1045A000169307900E9190464FF000098DF87150C8
:1045B00002235AE50A93079B43F010030793079BD6
:1045C00013F020037FF4C8AE079A12F0100240F0F7
:1045D0000A83079B13F0400300F005830E991346EE
:1045E0000A460432B1F800804FF000090E923CE513
:1045F0000A93079B43F010030793079B98063FF528
:1046000029AD079BD90600F1F782079B5A0640F1B6
:10461000F3820E9A4FF00009B2F8008004320123B1
:104620000E9222E50A93194B8DF86F201693079B83
:104630009B063FF5E0AE079BD80640F1BB830E9A80
:1046400013461B6804329846079B0E92D9074FF019
:1046500000093FF5DEAE022307E50E980A930268D3
:1046600000238DF89820024601219C4604328DF8E3
:104670006F301193129326AB09910E920D91109306
:1046800034E500BFD0840008B0840008BC84000872
:104690009C840008F0840008AC8400080E9A0A93F9
:1046A00013684FF0000B10938DF86FB002F10409FE
:1046B000002B00F05885BAF1000F1098C0F2EA8480
:1046C0005946524602F0DAF8002800F08985109B1E
:1046D000CDF844B0C31A0D93CDF8389023EAE373B4
:1046E0000993CDF848B09DF86FC0F9E4079941F0FF
:1046F000080107911D78194625E40A93079B8DF858
:104700006F209A0640F165830E9A134604330E9388
:104710000B9B11684FEAE3791A4698464B46C1E96C
:104720000023FFF7E2BB0A938DF86F20002D00F005
:10473000E283002301229C468DF86F30119312937F
:1047400026AB09928DF898500D921093CEE40898FC
:10475000314623AA02F0C4FC00287FF467AC3C4633
:104760009DF86FC0DDF894B016E5012B7FF495AC91
:10477000B9F1000F08BFB8F10A0F80F006820DF5FD
:10478000807B08F130080BF8418DCBEB07030D93CC
:10479000CDF840B09CE4652D40F3A08014981599A5
:1047A0000022002303F01EF9002800F05481249B0E
:1047B000C14901330BF1010B0122072BCDF894B055
:1047C000249384E8060000F33E8308341D9B139A6B
:1047D000934203DB079BDA077FF55CAD249B1899B6
:1047E0000133179A8B44072BCDF894B02260616097
:1047F000249300F31A840834139B5D1E002D7FF769
:1048000049AD102D249BDFF8B49240F3EF804FF0B8
:1048100010085A46DDF820A004E00834103D102DA1
:1048200040F3E38001331032072B25922493C4F820
:104830000090C4F80480F0DD5046314623AA02F00F
:104840004FFC00287FF4F2AB3C46259A249BE5E719
:104850000C9B099AC2EB030ABAF1000F7FF7C4ACB4
:10486000BAF1100F249ADFF854922BDD49465B46CB
:10487000A9464FF01008DDF820B00D4606E0AAF179
:10488000100ABAF1100F04F1080417DD01321033D9
:10489000072A2593249284E82001F0DD584631460A
:1048A00023AA02F01DFC00287FF4C0ABAAF1100A75
:1048B000BAF1100F3C46259B249AE7DC9B462B4619
:1048C0004D4699460132D344072ACDF894B024923C
:1048D00084E8000600F33A82083485E4139B249DA3
:1048E000012B40F3FC81013510990BF101030122EA
:1048F000072D259321602495626000F30E82083411
:104900001899013503EB010B179B072DCDF894B0D7
:1049100024952360616000F30C820834002314980E
:104920001599002203F05EF8139B002840F0E38005
:10493000109A013B013501329B44072D22602495DA
:10494000CDF894B0636000F313810834199A0135EF
:1049500093441FAB072DCDF894B02495626023607B
:104960007FF797AC0898314623AA02F0B9FB0028DC
:104970007FF45CAB3C46DDF894B08BE4002B4CD16B
:10498000079BD80749D50DF5807B30230BF8413DB7
:10499000CBEB07030D93CDF840B0FFF799BB089818
:1049A000314623AA02F09CFB00287FF43FAB3C4633
:1049B000DDF894B05CE40898314623AA02F090FB3D
:1049C00000287FF433AB3C46DDF894B0FFF7F7BB2B
:1049D0000898314623AA02F083FB00287FF426AB17
:1049E0003C46DDF894B0FFF7FBBB93460133AB4484
:1049F000072BCDF894B02493C4F8009065607FF73E
:104A000048AC0898314623AA02F06AFB00287FF4DC
:104A10000DABDDF894B03C463CE4CDF834A01097E3
:104A2000FFF756BBBB4616984FEA181343EA0973C3
:104A30004FEA191108F00F0289469846835C0BF87B
:104A4000013D58EA0903EFD15B46CDF840B0FB1AAF
:104A50000D93FFF73DBB1D9D002D40F30082139A7F
:104A6000129913468A42A8BF0B461D461099002D85
:104A700001EB020A0CDD0A46249BAB440133072BF1
:104A8000CDF894B084E82400249300F348830834DC
:104A9000129B002DA8BF5B1B002B1D4640F3C1805D
:104AA000102D249BDFF8149040F3C0815A464FF03C
:104AB0001008DDF820B008E0EC840008F08400085D
:104AC0000834103D102D40F3B08101331032072B14
:104AD00025922493C4F80090C4F80480F0DD584671
:104AE000314623AA02F0FCFA00287FF49FAA3C4634
:104AF000259A249BE5E703F1FF38B8F1000F7FF713
:104B000025AFB8F1100FDFF8489525DD5B464FF073
:104B1000100ADDF820B006E0A8F11008B8F1100F77
:104B200004F1080417DD01351033072D2593249572
:104B300084E80006F0DD5846314623AA02F0D0FA98
:104B400000287FF473AAA8F11008B8F1100F3C46B2
:104B5000259B249DE7DC9B460135C344072DCDF8FA
:104B600094B02495C4F80090C4F804807FF7EDAEAB
:104B70000898314623AA02F0B3FA00287FF456AA17
:104B8000DDF894B0249D3C46E0E6BB46CDF824C059
:104B9000404649460A22002302F07EFF303240465A
:104BA00049460BF8012D00230A2202F075FF8046CA
:104BB000894658EA0903EBD15B46FB1ADDF824C0AD
:104BC000CDF840B00D93FFF783BA302B109B3FF424
:104BD0003EAF013B1A461093BA1A30230D9201F8EA
:104BE000013CFFF775BA0E994FF000090A680431CD
:104BF0000E919046FFF739BA0E9901230A680431E5
:104C00000E9190464FF00009FFF72FBA08983146F1
:104C100023AA02F065FA00287FF408AA3C46DDF8D2
:104C200094B0109A12991D9B0A449046139A93428D
:104C300046DB079AD00743D4139AC8EB0A05D31A68
:104C40009D42A8BF1D46002D0CDD249AAB440132C5
:104C5000072ACDF894B0C4F800806560249200F370
:104C600096820834002DB4BF1D465D1B002D7FF7D2
:104C700011AB102D249BDFF8D8937FF7B7AE4FF020
:104C800010085A46DDF820A004E00834103D102D2D
:104C90007FF7ABAE01331032072B25922493C4F873
:104CA0000090C4F80480F0DD5046314623AA02F09B
:104CB00017FA00287FF4BAA93C46259A249BE5E719
:104CC000249A1898013217998344072ACDF894B092
:104CD00021606060249200F339820834ACE7079BBE
:104CE000D9073FF500AE0135109A0BF1010B0123F6
:104CF000072DCDF894B02260249563607FF725AE30
:104D00000898314623AA02F0EBF900287FF48EA917
:104D10003C46DDF894B0249D18E60898314623AA55
:104D200002F0DEF900287FF481A93C46259B249DF2
:104D3000E6E50898314623AA02F0D2F900287FF46C
:104D400075A93C46DDF894B0249DE7E50898314606
:104D500023AA02F0C5F900287FF468A93C46DDF8D3
:104D600094B0FFF741BA02F07DF9002840F0DD80F1
:104D7000B44AB54B8646472DD8BF1A4611900798BE
:104D8000032120F0800009910790CDF848E01092AF
:104D90000D919DF86FC0FFF7A3B929F00709D9F865
:104DA00000301493D9F80430159309F108030E93D9
:104DB000FFF7C5BB079B0E9A13F0400F13463FF455
:104DC00040AC0433B2F800804FF000090E93FFF7B7
:104DD0001CBB079BDB060BD4079B5D0608D50E9A10
:104DE000136804320E92BDF82C201A80FFF77DB8AC
:104DF0000E9A136804320E920B9A1A60FFF775B878
:104E000019461D78FFF79FB8079B0E9A13F0400FC5
:104E100013463FF43AABB2F9008004334FEAE87925
:104E20000E9342464B46FFF7D3BA93460133AB4449
:104E3000072BCDF894B02493C4F8009065603FF739
:104E4000E5AE0834EDE60898314623AA02F048F9A9
:104E500000287FF4EBA83C46DDF894B0B6E4249B30
:104E60007A4901330BF1010B0122072BCDF894B0E5
:104E7000249384E8060000F3FD8008342DB9139BC9
:104E80001BB9079BDB077FF505AA249B1898013304
:104E9000179A0BEB0001072B259122606060249389
:104EA00000F3F48104F108026D42002D40F3078104
:104EB000102DDFF89C9140F33E811024DDF8208016
:104EC00004E00832103D102D40F3358101331031DC
:104ED000072B25912493C2F800905460F1DD4046E1
:104EE000314623AA02F0FCF800287FF49FA83A4636
:104EF0002599249BE6E7259BB146002B3FF497A814
:104F00000898314623AA02F0EBF8FFF790B841F079
:104F1000200107915D78591CFFF715B80C980E9188
:104F200040420C901946FFF70BBA25F02003BAF166
:104F3000FF3F0D9300F0AB80472B05D1BAF1000F76
:104F400014BFD3464FF0010B079B43F480731193BA
:104F5000159BB3F1000A149B0993B7BF5346002376
:104F600003F1004A2D23662D0F9300F0B980462DE2
:104F700000F0B6800D9B0220452B14BFD9460BF1E3
:104F800001091DA98DE8010202911EA821A9039023
:104F9000099A53460491089800F096FA672D1090EC
:104FA00002D0472D40F0AC80079BDB0740F1968193
:104FB000109B03EB0908099851460022002302F0D8
:104FC00011FD002840F00A81219B984506D9302127
:104FD0005A1C21921970219B9845F9D8109A9B1A56
:104FE00013930D9B472B1D9B00F0EB80652D40F329
:104FF0000581662D129300F06481139B129A9342EF
:1050000000F35181079BD90700F1888122EAE273FE
:105010000D920F9A002A40F0C9800993119B9DF8C8
:105020006FC007931192FFF75BB80898314623AA27
:1050300002F056F800287EF4F9AF3C46DDF894B053
:10504000FFF7DABBB8840008B4840008EC840008D9
:10505000F08400080898402101F08EF9C9F800009A
:10506000C9F81000002800F086814023C9F81430E8
:10507000FEF72EBF0898314623AA02F031F8002827
:105080007EF4D4AF3C461D9DDDF894B0F6E64FF0BB
:10509000060B59E7CDF844B0FEF798FBCDF83890F1
:1050A0000D900346FFF71ABB0898314623AA02F079
:1050B00017F800287EF4BAAF3A462599249B139C32
:1050C000013301EB040B1099072BCDF894B0249316
:1050D000116054603FF795AC02F10804FFF7DAB8AD
:1050E00003201DA98DE8010802911EA821A90390A3
:1050F000099A53460491089800F0E6F9D9461090B1
:10510000109B03EB09080D9B462B7FF454AF109BBB
:105110001B78302B00F0E4801D9B98444BE70898E7
:10512000314623AA01F0DCFF00287EF47FAF3C4625
:10513000DDF894B0ACE401332944072B2591249386
:10514000C2F800905560AFDC0832B8E708983146E5
:1051500023AA01F0C5FF00287EF468AF3C461D9BE2
:10516000DDF894B068E55346062B28BF06230D935F
:1051700023EAE373DDF840C00993844BCDF83890FF
:10518000CDF844C0CDF848C01093FEF7A9BF0898E9
:10519000314623AA01F0A4FF00287EF447AF1D9BEF
:1051A000139ADDF894B0D31A3C465BE50993119B42
:1051B0004FF02D0C079300238DF86FC01193FEF76D
:1051C00092BFDA1C19DB9B4517DB1293672514E7A6
:1051D0002D239C468DF86F30FFF7C3B94346FDE69B
:1051E0002AEAEA731190CDF8389012909DF86FC0BA
:1051F0000993CDF834A0FEF773BF023D013B002BAD
:105200001D93BABF5B422D222B22092B8DF87C50B7
:105210008DF87D207ADD0DF18B0001465C4A82FB22
:10522000032EDA17C2EBAE0E0EEB8E02A3EB420298
:1052300073463032092B01F8012DEFDC0A4630337A
:105240005FFA83FE02F801ED904240F29B800DF17F
:105250007E020B4601E013F801EB834202F801EBFA
:10526000F9D123AB5B1A0DF17E0213441FAA9B1ADE
:10527000139A1993012A13440D935EDD0D9B0022AE
:1052800001330D93129223EAE373C2E60898314684
:1052900023AA01F025FF00287EF4C8AE3A461D9DE2
:1052A0002599249B00E6129B002BD8BFC3F102086E
:1052B000139BC8BF4FF0010843440D9323EAE373E7
:1052C000A7E6002B30DDBBF1000F17D1079BDB07F2
:1052D00014D4129A22EAE2730D929AE6219B7DE69B
:1052E000099851460022002302F07CFB00287FF43D
:1052F00013AFC9F101031D9398445CE6129B0BF1B7
:10530000010843440D9323EAE37382E630333022ED
:105310008DF87F308DF87E2020ABA7E7129B0133FC
:105320000D9323EAE37374E6BBF1000F1DD1079BD5
:10533000D8071AD401230D936BE6079B13F00103E2
:105340009CD112930D9B23EAE37362E60E9D2846DF
:10535000D5F800A00430BAF1000F5D780E90BEF6CB
:10536000F2AD4FF0FF3AFEF7EEBD0BF102030D93E5
:1053700023EAE3734DE6089A0C2313604FF0FF30E5
:10538000FEF75EBE0DF17E0370E700BFE484000807
:10539000676666662DE9F04F03690F6983B09F4227
:1053A00000F38B80013F01F1140600F1140A56F856
:1053B00027305AF827200133B2FBF3F8BB000093E3
:1053C00006EB030953440193B8F1000F3DD00023CD
:1053D0001C46B446D6461A465CF804BBDEF80050BC
:1053E0001FFA8BF34FEA1B4B03FB08220BFB08F35E
:1053F00003EB124392B2A41A1FFA83FBAAB222440F
:10540000CBEB154404EB224492B242EA0442E1455C
:105410004EF8042B4FEA24444FEA1342DCD2009B9F
:105420005AF803308BB9019C231F9A450CD254F8CB
:10543000043C4BB9A4F1080302E01A68043B1AB912
:105440009A4507F1FF37F8D30761044601F020FDC4
:1054500000282EDB00235546194608F1010856F8AE
:10546000042B2B6890B2081A120C99B2C2EB1343AA
:10547000421803EB224392B242EA0342B14545F897
:10548000042B4FEA2341EAD25AF827200AEB87037C
:105490007AB91A1F92450BD253F8042C42B9083B33
:1054A00002E01A68043B1AB99A4507F1FF37F8D3AE
:1054B0002761404603B0BDE8F08F002003B0BDE88F
:1054C000F08F00BF000000002DE9F04F016C99B093
:1054D0000446CDE90223259D41B1426C012393404E
:1054E0008B604A6001F0E8FA00232364DDE90223BF
:1054F000002B994636DB00232B60A54B1A4609EAA0
:105500000303934217D0DDE90267002200233046EF
:10551000394602F067FA804600282BD0249A0123EE
:105520001360269B002B00F0CB809A48186001384E
:1055300019B0BDE8F08F42F20F73249A1360029BFA
:10554000002B00F0A6809448269B002BF0D0C37857
:10555000002B00F0B78000F10803269A136019B001
:10556000BDE8F08F039A012322F000492B60CDF8AB
:105570000C90C2E717AA16AB8DE80C002046324605
:105580003B4601F01BFD5FEA1955834640F08A80D7
:10559000DDF85880179D6FF4826345449D42C0F248
:1055A00095827E4A05F21243521B09FA02F9029AC9
:1055B00022FA03F049EA0000FDF774FA0123013DE5
:1055C000A1F1F87112930022754BFDF72DF96AA332
:1055D000D3E90023FDF7DCFA69A3D3E90023FDF743
:1055E00025F9064628460F46FDF76CFA66A3D3E96F
:1055F0000023FDF7CDFA02460B4630463946FDF74B
:1056000015F906460F4602F01FFA394605900022AA
:105610003046002302F0F0F9002840F0A481059BF9
:10562000162B00F29D81DDE9022305985D4901EB0F
:10563000C001D1E9000102F0FDF9002800F050821C
:10564000059B013B059300230C93C5EB0805B5F1C1
:10565000010A00F19F8100230693059B002BC0F2F5
:1056600090819A440B9300230993229B092B2BD8FA
:10567000052B40F37786043B22930025229B023BB7
:10568000032B00F25586DFE813F0CF03C103B0020D
:105690006A06414B444AC9F31300002814BF184658
:1056A000104651E7C7F3130343F07F51CDF848800C
:1056B0003046A5F2FF3541F44011DDF8588082E70D
:1056C0003A4835E7C31C48E700216164204622912F
:1056D00001F0CAF94FF0FF33229A07930D9301238B
:1056E0000890239220640A93179B002BC0F2D0806D
:1056F000059A0E2A00F3CC802A4B03EBC203D3E9B0
:105700000089239B002BC0F29283DDE902674246A9
:105710004B4630463946FDF765FB02F095F9824667
:10572000FDF7D0F942464B46FDF732FA02460B46EA
:1057300030463946FDF778F8079E089F0AF1300594
:10574000012E3D7002460B4607F1010562D0002292
:10575000174BFDF71DFA0022002306460F4602F004
:1057600041F9002840F08180CDF808B0DDF820A094
:10577000DDF81CB006942AE061436F63A787D23F2F
:10578000B3C8608B288AC63FFB799F501344D33F30
:105790000000F07FED840008108600080EFCFFFF7B
:1057A0000000F83F2886000804860008EC84000802
:1057B000000024400022C84BFDF7EAF90022002334
:1057C00006460F4602F00EF9002840F0E0834246FC
:1057D0004B4630463946FDF705FB02F035F90446E5
:1057E000FDF770F942464B46FDF7D2F902460B46EB
:1057F00030463946FDF718F804F1300605F8016B1C
:10580000CAEB0506B34502460B46D3D1A246DDF8E6
:1058100008B0069C10461946FDF708F806460F46E4
:105820004046494632463B4602F0E6F848B9404613
:10583000494632463B4602F0D5F8B0B11AF0010FA6
:1058400013D015F8018C6B1E089904E08B4200F010
:10585000458413F8018DB8F1390F03F101051A469B
:10586000F4D008F10103DBB213702046594601F071
:1058700023F90022059B2A70249A01331360269B8A
:10588000002B00F04A8308981D6019B0BDE8F08F26
:105890000A9A002A00F08480229A012A40F30983A0
:1058A000079B5F1E099BBB42C0F2AF83DF1B079BB8
:1058B000002BC0F2A584069D079B069A20461A4439
:1058C000012106929A4401F091F9064665B1BAF1B8
:1058D000000F09DDAA455346A8BF2B46069AED1ACC
:1058E000D21A0692C3EB0A0A099B002B1ADD0A9B07
:1058F000002B00F08383002F10DD31463A4620460E
:1059000001F01EFA06465A463146204601F078F963
:1059100080465946204601F0CFF8C346099BDA1B62
:1059200040F0A7822046012101F060F90B9B8046E0
:10593000002B39DD01461A46204601F001FA229B70
:105940008046012B40F39B824FF00009D8F81030BD
:1059500008EB8303186901F0FBF8C0F120002DE08B
:1059600001230C9371E60598FDF7ACF832463B46EF
:1059700002F038F800287FF452AE059B013B0593F6
:105980004DE6069A059BD21A5B42099300230692C4
:105990000B936AE6CAF1000306934FF0000A5CE637
:1059A000099F069D0A9E91E7229B012B40F3B88236
:1059B0004FF000090B9B002BC8D10120504410F080
:1059C0001F0000F08180C0F12003042B40F3C1844C
:1059D000C0F11C00069B0544034406938244069BC9
:1059E000002B05DD59461A46204601F0F9F9834699
:1059F000BAF1000F05DD41465246204601F0F0F9AC
:105A000080460C9B002B40F06D82079B002B40F3DF
:105A10009B820A9B002B71D1DDF82090079F4D4699
:105A200004E05946204601F051F883465846414665
:105A3000FFF7B0FC303005F8010BC9EB0503BB42A2
:105A40004FF00A024FF00003EBDB089B079A8446F5
:105A5000012AACBF9B1801331D464FF0000A59467E
:105A600001222046CDF808C001F0BAF9414683462C
:105A700001F00EFA0028DDF808C040F3FC8215F8AA
:105A8000012C6B1E089904E08B4200F0798213F818
:105A9000012D392A03F10105F6D001321A70414671
:105AA000204601F009F8002E3FF4DFAEBAF1000FF6
:105AB00005D0B24503D05146204600F0FDFF3146E7
:105AC000204600F0F9FFD0E61C2083E7034B029A42
:105AD0005B1B02FA03F06FE500002440EEFBFFFFC2
