:020000040800F2
:1000000098080020BD03000819040008190400081E
:100010001904000819040008190400080000000071
:1000200000000000000000000000000019040008AB
:10003000190400080000000019040008E11000087D
:10004000190400081904000819040008190400081C
:10005000190400081904000819040008190400080C
:1000600019040008190400081904000819040008FC
:1000700019040008190400081904000819040008EC
:1000800019040008190400081904000819040008DC
:10009000190400081904000819040008FD100008DC
:1000A00019040008190400081904000819040008BC
:1000B00019040008190400081904000819040008AC
:1000C000190400081904000819040008190400089C
:1000D000190400081904000819040008190400088C
:1000E00019040008190400081904000800000000A1
:1000F0000000000000000000000000000000000000
:1001000000000000000000005FF808F180B590B02A
:1001100000AFF860B9601346FB800120012100F0B8
:1001200043FC0820012100F05DFC0120012100F0CA
:1001300059FC4FF48020012100F072FC00F064F8BB
:100140004FF4706000F026FF2B4AFB6813602A4BC7
:100150000C225A81284B00229A81274B00221A81B7
:10016000254B0022DA80244B00229A802348224922
:1001700000F0E0FC224800F0F7FD224B3B61BB6839
:100180007B610023BB61FB88FB6100233B62802312
:100190007B620023BB620023FB6220233B634FF49E
:1001A00040537B630023BB6307F1100314481946D7
:1001B00000F096FE0D2387F83C30012387F83F308E
:1001C000002387F83D30002387F83E3007F13C03D9
:1001D000184600F0E3FF0A48012100F0BFFE07487F
:1001E000012100F061FD05484021012200F07CFD65
:1001F0004037BD4680BD00BF500000200048004091
:10020000300002400448004080B500AF0C4B032290
:100210009A700B4B0422DA70094B4FF400621A807B
:100220000848074900F0FCF8054B1822DA70044B27
:100230004FF480621A800348014900F0F1F880BD54
:100240004C000020000C014080B500AF154A154B52
:100250001B6843F0010313601249124B5A68124B9A
:1002600013404B600F4A0F4B1B6823F0847323F439
:10027000803313600B4A0B4B1B6823F480231360FD
:10028000084A084B5B6823F4FE035360054B4FF4A8
:100290001F029A6000F00CF8044B4FF000629A6065
:1002A00080BD00BF001002400000FFF800ED00E03C
:1002B00080B500AF00F002F880BD00BF80B483B00D
:1002C00000AF00237B6000233B603A4A394B1B6838
:1002D00043F480331360374B1B6803F400333B60F7
:1002E0007B6801337B603B68002B03D17B68B3F5EF
:1002F000A06FF0D12F4B1B6803F40033002B02D00A
:1003000001233B6001E000233B603B68012B4BD1A4
:10031000294A294B1B6843F010031360264A264BD9
:100320001B6823F003031360234A234B1B6843F02D
:10033000020313601F4A1F4B5B6853601D4A1D4B2D
:100340005B6853601B4A1B4B5B6843F480635360DC
:10035000184A184B5B6823F47C135360154A154BFD
:100360005B6843F4E8135360124A124B1B6843F076
:100370008073136000BF0F4B1B6803F00073002BEA
:10038000F9D00C4A0B4B5B6823F003035360094A16
:10039000084B5B6843F00203536000BF054B5B688A
:1003A00003F00C03082BF9D10C37BD465DF8047B34
:1003B000704700BF001002400020024080B582B0AC
:1003C00000AF104B7B60104B3B6007E03B681A1D91
:1003D0003A607A68111D796012681A603B680B4AAE
:1003E0009342F3D30A480B494FF000028842B8BF4A
:1003F00040F8042BFADBFFF727FF00F015F9083768
:10040000BD4680BD60120008000000202C000020C6
:100410002C0000209804002080B400AFFEE700BF4D
:1004200080B489B000AF786039600023FB6100239D
:100430003B610023BB610023FB6000237B61002341
:10044000BB603B68DB7803F00F03FB613B68DB7844
:1004500003F01003002B05D03B689B781A46FB691C
:100460001343FB613B681B88DBB2002B44D07B68E5
:100470001B687B610023BB6138E0BB69012202FA83
:1004800003F3FB603B681B881A46FB6813403B6123
:100490003A69FB689A4226D1BB699B00FB60FB6806
:1004A0000F2202FA03F3BB60BB68DB437A69134097
:1004B0007B61FB68FA6902FA03F37A6913437B6193
:1004C0003B68DB78282B05D1BB6901229A407B6809
:1004D0005A6108E03B68DB78482B04D1BB690122F4
:1004E0009A407B681A61BB690133BB61BB69072B0A
:1004F000C3D97B687A691A603B681B88FF2B4AD98D
:100500007B685B687B610023BB613EE0BB690833AD
:100510001A4601239340FB603B681B881A46FB6820
:1005200013403B613A69FB689A422BD1BB699B003F
:10053000FB60FB680F2202FA03F3BB60BB68DB437E
:100540007A6913407B61FB68FA6902FA03F37A69FE
:1005500013437B613B68DB78282B07D1BB690833E9
:100560001A46012303FA02F27B685A613B68DB7882
:10057000482B07D1BB6908331A46012303FA02F25C
:100580007B681A61BB690133BB61BB69072BBDD9AD
:100590007B687A695A602437BD465DF8047B7047F2
:1005A00080B485B000AF78600B467B800023FB737E
:1005B0007B689A687B881340002B02D00123FB7371
:1005C00001E00023FB73FB7B18461437BD465DF842
:1005D000047B704780B500AF022000F0A9FB01202A
:1005E00000F066F8002000F035F800204FF46011AC
:1005F00000F06EF8012000F089F800BF392000F00B
:100600002DFA0346002BF9D0022000F08FF80020CD
:1006100000F0A8F8002000F0C1F8002000F0DAF89F
:10062000002000F0F3F880BD80B500AFFFF70CFEAE
:10063000FFF7D0FF4FF47A70402100F011FD03481E
:1006400003494FF47A72FFF761FDFEE780841E00D4
:100650006800002080B483B000AF7860134A134B69
:100660001B6823F480331360104A104B1B6823F47B
:10067000802313607B68B3F5803F03D0B3F5802FF0
:1006800007D00DE0094A094B1B6843F4803313601F
:1006900006E0064A054B1B6843F4A023136000BF25
:1006A0000C37BD465DF8047B704700BF0010024068
:1006B00080B483B000AF0346FB71044AFB7913603A
:1006C0000C37BD465DF8047B704700BF0000424216
:1006D00080B485B000AF786039600023FB600A4BBE
:1006E0005B68FB60FB6823F47C13FB607A683B6803
:1006F0001343FA681343FB60034AFB6853601437E3
:10070000BD465DF8047B70470010024080B483B0A2
:1007100000AF0346FB71044AFB7913600C37BD46FA
:100720005DF8047B704700BF6000424280B485B032
:1007300000AF78600023FB60094B5B68FB60FB68DF
:1007400023F00303FB60FA687B681343FB60044AF1
:10075000FB6853601437BD465DF8047B704700BFEB
:100760000010024080B485B000AF78600023FB60C9
:10077000094B5B68FB60FB6823F0F003FB60FA68E1
:100780007B681343FB60044AFB6853601437BD4623
:100790005DF8047B704700BF0010024080B485B054
:1007A00000AF78600023FB60094B5B68FB60FB686F
:1007B00023F4E063FB60FA687B681343FB60044A40
:1007C000FB6853601437BD465DF8047B704700BF7B
:1007D0000010024080B485B000AF78600023FB6059
:1007E000094B5B68FB60FB6823F46053FB607B682C
:1007F000DB00FA681343FB60034AFB68536014375D
:10080000BD465DF8047B70470010024080B485B09F
:1008100000AF78600023FB60094B5B68FB60FB68FE
:1008200023F44043FB60FA687B681343FB60044A8F
:10083000FB6853601437BD465DF8047B704700BF0A
:100840000010024080B487B000AF786000237B6165
:1008500000233B610023FB600023BB604D4B5B68C2
:1008600003F00C037B617B69042B07D0082B09D0B4
:10087000002B34D17B68484A1A6034E07B68464AD2
:100880001A6030E0434B5B6803F470133B61414BEB
:100890005B6803F48033FB603B699B0C02333B6174
:1008A000FB68002B06D13B693C4A02FB03F27B68E4
:1008B0001A6013E0374B5B6803F40033002B06D05B
:1008C0003B69364A02FB03F27B681A6006E03B692B
:1008D000314A02FB03F27B681A6004E003E07B68A4
:1008E0002D4A1A6000BF2B4B5B6803F0F0037B615D
:1008F0007B691B097B612A4A7B6913441B78DBB245
:10090000BB607B681A68BB68DA407B685A60214B21
:100910005B6803F4E0637B617B691B0A7B61204AAF
:100920007B6913441B78DBB2BB607B685A68BB6889
:10093000DA407B689A60174B5B6803F460537B6115
:100940007B69DB0A7B61164A7B6913441B78DBB247
:10095000BB607B685A68BB68DA407B68DA600D4B25
:100960005B6803F440437B617B699B0B7B610D4AB1
:100970007B6913441B78DBB2BB607B68DA68BB68B9
:10098000B2FBF3F27B681A611C37BD465DF8047B4D
:10099000704700BF0010024000127A0000093D00BD
:1009A000140000202400002080B483B000AF7860E1
:1009B0000B46FB70FB78002B06D00949084B5A699F
:1009C0007B6813434B6106E00549054B5A697B6818
:1009D000DB4313404B610C37BD465DF8047B704729
:1009E0000010024080B483B000AF78600B46FB700B
:1009F000FB78002B06D00949084B9A697B681343A2
:100A00008B6106E00549054B9A697B68DB4313401F
:100A10008B610C37BD465DF8047B704700100240C7
:100A200080B483B000AF78600B46FB70FB78002B7E
:100A300006D00949084BDA697B681343CB6106E0AD
:100A40000549054BDA697B68DB431340CB610C3702
:100A5000BD465DF8047B70470010024080B487B04B
:100A600000AF0346FB710023FB6000237B61002382
:100A7000FB74FB795B09DBB2FB60FB68012B03D1E4
:100A8000124B1B687B6109E0FB68022B03D10F4B03
:100A90001B6A7B6102E00D4B5B6A7B61FB7903F0B3
:100AA0001F03FB60FB687A6922FA03F303F001037A
:100AB000002B02D00123FB7401E00023FB74FB7CBC
:100AC00018461C37BD465DF8047B70470010024095
:100AD00080B485B000AF78600023FB730023BB6057
:100AE0000C4B1A687B681340BB600A4B5A697B68E1
:100AF0001340002B05D0BB68002B02D00123FB73F1
:100B000001E00023FB73FB7B18461437BD465DF8FC
:100B1000047B70470004014080B483B000AF78606C
:100B2000034A7B6853610C37BD465DF8047B704710
:100B30000004014080B58CB000AF786039600023BC
:100B4000FB620023BB6200237B6200233B62002325
:100B5000FB617B68FB617B681B8A9BB2FB62FA6A64
:100B60004CF6FF731340FB623B68DB881A46FB6A56
:100B70001343FB62FB6A9AB27B681A827B689B898B
:100B80009BB2FB62FA6A4EF6F3131340FB623B68BA
:100B90009A883B681B8913439AB23B685B8913436D
:100BA0009BB21A46FB6A1343FB62FB6A9AB27B68EC
:100BB0009A817B689B8A9BB2FB62FA6A4FF6FF437D
:100BC0001340FB623B689B891A46FB6A1343FB6236
:100BD000FB6A9AB27B689A8207F108031846FFF70E
:100BE00031FEFB692E4A934202D17B69BB6201E070
:100BF0003B69BB627B689B899BB29BB21BB2002B9B
:100C00000CDABA6A13469B0013449A001A443B68F4
:100C10001B685B00B2FBF3F37B620BE0BA6A13461E
:100C20009B0013449A001A443B681B689B00B2FB6C
:100C3000F3F37B627B6A1B4AA2FB03235B091B0164
:100C4000FB62FB6A1B09642202FB03F37A6AD31A74
:100C50003B627B689B899BB29BB21BB2002B0CDA78
:100C60003B6ADB0032330F4AA2FB03235B0903F02C
:100C70000703FA6A1343FB620BE03B6A1B01323342
:100C8000084AA2FB03235B0903F00F03FA6A13432C
:100C9000FB62FB6A9AB27B681A813037BD4680BD21
:100CA000003801401F85EB5180B483B000AF7860FD
:100CB0000B46FB70FB78002B08D07B689B899BB2AE
:100CC00043F400539AB27B689A8107E07B689B8962
:100CD0009BB223F400539AB27B689A810C37BD46CD
:100CE0005DF8047B704700BF80B483B000AF7860CC
:100CF0000B467B8013467B707B78002B08D07B688B
:100D00009B8A9AB27B8813439AB27B689A8209E0E5
:100D10007B689B8A9AB27B88DB439BB213409AB272
:100D20007B689A820C37BD465DF8047B704700BF34
:100D300080B485B000AF78600023FB60094B1B686E
:100D4000FB60FB6803F03803FB60FA687B681343C1
:100D5000FB60044AFB6813601437BD465DF8047BF2
:100D6000704700BF0020024080B483B000AF7860BD
:100D70007B681A684FF6FE7313407A6813607B68CD
:100D800000221A607B6800225A607B6800229A6009
:100D90007B680022DA607B68434A934206D1434A6B
:100DA000424B5B6843F00F03536077E07B68404A37
:100DB000934206D13D4A3D4B5B6843F0F0035360DC
:100DC0006CE07B683B4A934206D1384A374B5B68FC
:100DD00043F47063536061E07B68374A934206D105
:100DE000324A324B5B6843F47043536056E07B6891
:100DF000324A934206D12D4A2C4B5B6843F4702350
:100E000053604BE07B682E4A934206D1274A274B1A
:100E10005B6843F47003536040E07B68294A934267
:100E200006D1224A214B5B6843F07063536035E082
:100E30007B68254A934206D1244A244B5B6843F0E1
:100E40000F0353602AE07B68214A934206D11F4A70
:100E50001E4B5B6843F0F00353601FE07B681D4A44
:100E6000934206D1194A194B5B6843F4706353608F
:100E700014E07B68184A934206D1144A134B5B680E
:100E800043F47043536009E07B68144A934205D1F0
:100E90000E4A0E4B5B6843F4702353600C37BD461B
:100EA0005DF8047B704700BF08000240000002406C
:100EB0001C00024030000240440002405800024042
:100EC0006C0002408000024008040240000402401E
:100ED0001C04024030040240440402405804024012
:100EE00080B485B000AF786039600023FB607B6818
:100EF0001B68FB60FB6823F4FF4323F07003FB6077
:100F00003B689A683B681B6A1A433B681B691A4333
:100F10003B685B691A433B689B691A433B68DB6922
:100F20001A433B685B6A1A433B689B6A1343FA683F
:100F30001343FB607B68FA681A603B68DA687B6879
:100F40005A603B681A687B689A603B685A687B689D
:100F5000DA601437BD465DF8047B704780B483B017
:100F600000AF78600B46FB70FB78002B06D07B68E7
:100F70001B6843F001027B681A6006E07B681A6810
:100F80004FF6FE7313407A6813600C37BD465DF868
:100F9000047B704780B483B000AF78607B6803F057
:100FA0008053002B03D0064A7B68536002E0054A59
:100FB0007B6853600C37BD465DF8047B704700BF0B
:100FC000000402400000024080B483B000AF03463A
:100FD0003960FB7197F90730002B0BDA0D49FB796B
:100FE00003F00F03043B3A68D2B21201D2B20B44B1
:100FF0001A7609E0084997F907303A68D2B2120127
:10100000D2B20B4483F800230C37BD465DF8047B55
:10101000704700BF00ED00E000E100E080B582B065
:1010200000AF78607B68B3F1807F01D3012311E0CA
:101030000A4A7B6823F07F43013B53604FF0FF3047
:101040000F21FFF7C1FF054B00229A60034B0722D7
:101050001A60002318460837BD4680BD10E000E046
:1010600080B582B000AF786039603B68DAB2094B76
:101070001A70094B1A687B68B2FBF3F31846FFF746
:10108000CDFF4FF0FF300021FFF79EFF0837BD4630
:1010900080BD00BF280000200000002080B400AF09
:1010A0000B4B1B6801334FF47A7202FB03F2094BBE
:1010B0009B6809490978B3FBF1F3D31A074A136017
:1010C000064B1B681846BD465DF8047B704700BFA1
:1010D0002C00002010E000E028000020300000205C
:1010E00080B400AF044B1B680133034A1360BD4654
:1010F0005DF8047B704700BF2C00002080B500AF76
:101100004020FFF7E5FC0346002B37D01C48402168
:10111000FFF746FA0346002B0AD0FFF7BFFF02464F
:10112000184B1A60FFF7BAFF0246174B1A6022E00D
:10113000FFF7B4FF0246154B1A60FFF7AFFF0246F8
:10114000134B1A600F4B1B68002B14D0114B1B78EC
:10115000DBB219460E4B1B68DAB20A4B1B68DBB2D6
:10116000D31ADAB20C4B5A540A4B1B78DBB2013358
:10117000DAB2084B1A704020FFF7CEFC80BD00BFEA
:10118000000C014034000020400000203C00002002
:1011900038000020440000206004002080B487B0A4
:1011A00000AF786000237B6100233B610F23FB606D
:1011B0007B68DB78002B3AD0274BDB68DB4303F4FA
:1011C000E0631B0A7B617B69C3F104033B617B69BC
:1011D000FA6822FA03F3FB607B685B781A463B6986
:1011E00002FA03F37B617B689B781A46FB68134025
:1011F0007A6913437B617B691B017B61174A7B68BA
:101200001B787969C9B213440A4683F80023134A4C
:101210007B681B785B09DBB218467B681B7803F0A0
:101220001F03012101FA03F342F820300FE00B49BC
:101230007B681B785B09DBB218467B681B7803F080
:101240001F0301229A4000F1200341F823201C379C
:10125000BD465DF8047B704700ED00E000E100E072
:1012600000A24A0400000000000000000102030484
:10127000060708090000000001020304010203043C
:0C128000060708090204060848000000E8
:0400000508000000EF
:00000001FF
